{
  "contractName": "WeatherBet",
  "abi": [
    {
      "constant": true,
      "inputs": [],
      "name": "getStoredBalance",
      "outputs": [
        {
          "name": "",
          "type": "uint256"
        }
      ],
      "payable": false,
      "stateMutability": "view",
      "type": "function"
    },
    {
      "constant": true,
      "inputs": [],
      "name": "getOwner",
      "outputs": [
        {
          "name": "",
          "type": "address"
        }
      ],
      "payable": false,
      "stateMutability": "view",
      "type": "function"
    },
    {
      "constant": false,
      "inputs": [],
      "name": "join",
      "outputs": [],
      "payable": true,
      "stateMutability": "payable",
      "type": "function"
    },
    {
      "constant": true,
      "inputs": [],
      "name": "getParticipators",
      "outputs": [
        {
          "name": "",
          "type": "address[]"
        }
      ],
      "payable": false,
      "stateMutability": "view",
      "type": "function"
    },
    {
      "constant": true,
      "inputs": [],
      "name": "getBetAmount",
      "outputs": [
        {
          "name": "",
          "type": "uint256"
        }
      ],
      "payable": false,
      "stateMutability": "view",
      "type": "function"
    },
    {
      "inputs": [
        {
          "name": "_owner",
          "type": "address"
        },
        {
          "name": "_amount",
          "type": "uint256"
        }
      ],
      "payable": false,
      "stateMutability": "nonpayable",
      "type": "constructor"
    },
    {
      "constant": true,
      "inputs": [],
      "name": "defineWinners",
      "outputs": [
        {
          "name": "",
          "type": "address[]"
        }
      ],
      "payable": false,
      "stateMutability": "view",
      "type": "function"
    },
    {
      "constant": true,
      "inputs": [],
      "name": "getValue",
      "outputs": [
        {
          "name": "",
          "type": "uint256"
        }
      ],
      "payable": false,
      "stateMutability": "view",
      "type": "function"
    }
  ],
  "bytecode": "0x608060405234801561001057600080fd5b506040516040806105218339810180604052604081101561003057600080fd5b810190808051906020019092919080519060200190929190505050816000800160006101000a81548173ffffffffffffffffffffffffffffffffffffffff021916908373ffffffffffffffffffffffffffffffffffffffff160217905550806000600201819055505050610478806100a96000396000f3fe608060405260043610610083576000357c0100000000000000000000000000000000000000000000000000000000900463ffffffff1680631e6be9111461008857806320965255146100b357806322a4b656146100de578063893d20e81461014a578063b688a363146101a1578063f8a0b695146101ab578063fde41e2914610217575b600080fd5b34801561009457600080fd5b5061009d610242565b6040518082815260200191505060405180910390f35b3480156100bf57600080fd5b506100c8610261565b6040518082815260200191505060405180910390f35b3480156100ea57600080fd5b506100f361026a565b6040518080602001828103825283818151815260200191508051906020019060200280838360005b8381101561013657808201518184015260208101905061011b565b505050509050019250505060405180910390f35b34801561015657600080fd5b5061015f6102fb565b604051808273ffffffffffffffffffffffffffffffffffffffff1673ffffffffffffffffffffffffffffffffffffffff16815260200191505060405180910390f35b6101a9610327565b005b3480156101b757600080fd5b506101c06103af565b6040518080602001828103825283818151815260200191508051906020019060200280838360005b838110156102035780820151818401526020810190506101e8565b505050509050019250505060405180910390f35b34801561022357600080fd5b5061022c610440565b6040518082815260200191505060405180910390f35b60003073ffffffffffffffffffffffffffffffffffffffff1631905090565b60006005905090565b606060006001018054806020026020016040519081016040528092919081815260200182805480156102f157602002820191906000526020600020905b8160009054906101000a900473ffffffffffffffffffffffffffffffffffffffff1673ffffffffffffffffffffffffffffffffffffffff16815260200190600101908083116102a7575b5050505050905090565b60008060000160009054906101000a900473ffffffffffffffffffffffffffffffffffffffff16905090565b670de0b6b3a7640000600060020154023414151561034457600080fd5b60006001013390806001815401808255809150509060018203906000526020600020016000909192909190916101000a81548173ffffffffffffffffffffffffffffffffffffffff021916908373ffffffffffffffffffffffffffffffffffffffff16021790555050565b6060600060010180548060200260200160405190810160405280929190818152602001828054801561043657602002820191906000526020600020905b8160009054906101000a900473ffffffffffffffffffffffffffffffffffffffff1673ffffffffffffffffffffffffffffffffffffffff16815260200190600101908083116103ec575b5050505050905090565b6000806002015490509056fea165627a7a72305820d085676b0cfd149824d037692ee84816050891be5b3a0d763d52bcd34397247f0029",
  "source": "pragma solidity ^0.5.0;\r\n\r\ninterface IWeatherBet {\r\n    function getValue() external;\r\n}\r\n\r\ncontract WeatherFactory {\r\n    address[] public bets;\r\n\r\n    function createWeatherBet(uint _value) public returns (address) {\r\n        address betAddress = address(new WeatherBet(msg.sender , _value));\r\n        bets.push(betAddress);\r\n        return betAddress;\r\n    }\r\n    function getOwnedBets(address ownerAddress) public view returns (address[] memory) {\r\n        address[] memory allBets = new address[](bets.length);\r\n        uint256 currentIndice = 0;\r\n        for (uint256 index = 0; index < bets.length; index++) {\r\n            WeatherBet bet = WeatherBet(bets[index]);\r\n            if (bet.getOwner() == ownerAddress) {\r\n                allBets[currentIndice] = address(bet);\r\n                currentIndice++;  \r\n            }\r\n        }\r\n        address[] memory ownedBets = new address[](currentIndice);\r\n        for(currentIndice ; currentIndice > 0; currentIndice--){\r\n            ownedBets[currentIndice-1] = allBets[currentIndice-1]; \r\n        }\r\n        return ownedBets;\r\n    }\r\n}\r\n//abstract contract\r\ncontract Bet {\r\n    struct BetStruct{\r\n        address owner;\r\n        address[] participators;\r\n        uint betAmount;\r\n    }\r\n    BetStruct bet;\r\n\r\n    function join() payable public {\r\n        require(msg.value == bet.betAmount * 1 ether);\r\n        bet.participators.push(msg.sender);\r\n    }\r\n\r\n    function getParticipators() public view returns  (address[] memory) {\r\n        return bet.participators;\r\n    }\r\n\r\n    function getBetAmount() public view returns (uint) {\r\n        return bet.betAmount;\r\n    }\r\n\r\n    function getOwner() public view returns (address) {\r\n        return bet.owner;\r\n    }\r\n\r\n    function getStoredBalance() public view returns (uint256){\r\n        return address(this).balance;\r\n    }\r\n    function defineWinners() public view returns (address[] memory);\r\n}\r\n\r\ncontract WeatherBet is Bet, IWeatherBet {\r\n    constructor(address _owner , uint _amount) public {\r\n        bet.owner = _owner;\r\n        bet.betAmount = _amount;\r\n    }\r\n    //Everyone is a winner\r\n    function defineWinners() public view returns (address[] memory) {\r\n        return bet.participators;\r\n    }\r\n    function getValue() public view returns(uint){\r\n        return 5;\r\n    }\r\n}",
  "sourcePath": "C:/Users/Robin/Documents/GitHub/QuintorExperiment/contracts/Weather.sol",
  "compiler": {
    "name": "solc",
    "version": "0.5.0+commit.1d4f565a.Emscripten.clang"
  },
  "schemaVersion": "3.0.2",
  "updatedAt": "2019-02-17T17:12:58.617Z",
  "devdoc": {
    "methods": {}
  },
  "userdoc": {
    "methods": {}
  }
}