{
  "contractName": "WeatherFactory",
  "abi": [
    {
      "constant": true,
      "inputs": [
        {
          "name": "",
          "type": "uint256"
        }
      ],
      "name": "bets",
      "outputs": [
        {
          "name": "",
          "type": "address"
        }
      ],
      "payable": false,
      "stateMutability": "view",
      "type": "function"
    },
    {
      "constant": false,
      "inputs": [
        {
          "name": "_value",
          "type": "uint256"
        }
      ],
      "name": "createWeatherBet",
      "outputs": [
        {
          "name": "",
          "type": "address"
        }
      ],
      "payable": false,
      "stateMutability": "nonpayable",
      "type": "function"
    },
    {
      "constant": true,
      "inputs": [
        {
          "name": "ownerAddress",
          "type": "address"
        }
      ],
      "name": "getOwnedBets",
      "outputs": [
        {
          "name": "",
          "type": "address[]"
        }
      ],
      "payable": false,
      "stateMutability": "view",
      "type": "function"
    }
  ],
  "bytecode": "0x608060405234801561001057600080fd5b50610aea806100206000396000f3fe608060405260043610610057576000357c0100000000000000000000000000000000000000000000000000000000900463ffffffff16806315f00f551461005c57806322af00fa146100d7578063ffc3dd2914610152575b600080fd5b34801561006857600080fd5b506100956004803603602081101561007f57600080fd5b81019080803590602001909291905050506101f8565b604051808273ffffffffffffffffffffffffffffffffffffffff1673ffffffffffffffffffffffffffffffffffffffff16815260200191505060405180910390f35b3480156100e357600080fd5b50610110600480360360208110156100fa57600080fd5b81019080803590602001909291905050506102d0565b604051808273ffffffffffffffffffffffffffffffffffffffff1673ffffffffffffffffffffffffffffffffffffffff16815260200191505060405180910390f35b34801561015e57600080fd5b506101a16004803603602081101561017557600080fd5b81019080803573ffffffffffffffffffffffffffffffffffffffff16906020019092919050505061030e565b6040518080602001828103825283818151815260200191508051906020019060200280838360005b838110156101e45780820151818401526020810190506101c9565b505050509050019250505060405180910390f35b600080338361020561058d565b808373ffffffffffffffffffffffffffffffffffffffff1673ffffffffffffffffffffffffffffffffffffffff16815260200182815260200192505050604051809103906000f08015801561025e573d6000803e3d6000fd5b50905060008190806001815401808255809150509060018203906000526020600020016000909192909190916101000a81548173ffffffffffffffffffffffffffffffffffffffff021916908373ffffffffffffffffffffffffffffffffffffffff1602179055505080915050919050565b6000818154811015156102df57fe5b906000526020600020016000915054906101000a900473ffffffffffffffffffffffffffffffffffffffff1681565b6060806000805490506040519080825280602002602001820160405280156103455781602001602082028038833980820191505090505b509050600080905060008090505b6000805490508110156104cf576000808281548110151561037057fe5b9060005260206000200160009054906101000a900473ffffffffffffffffffffffffffffffffffffffff1690508573ffffffffffffffffffffffffffffffffffffffff168173ffffffffffffffffffffffffffffffffffffffff1663893d20e86040518163ffffffff167c010000000000000000000000000000000000000000000000000000000002815260040160206040518083038186803b15801561041657600080fd5b505afa15801561042a573d6000803e3d6000fd5b505050506040513d602081101561044057600080fd5b810190808051906020019092919050505073ffffffffffffffffffffffffffffffffffffffff1614156104c15780848481518110151561047c57fe5b9060200190602002019073ffffffffffffffffffffffffffffffffffffffff16908173ffffffffffffffffffffffffffffffffffffffff168152505082806001019350505b508080600101915050610353565b506060816040519080825280602002602001820160405280156105015781602001602082028038833980820191505090505b50905060008090505b8281101561058157838181518110151561052057fe5b90602001906020020151828281518110151561053857fe5b9060200190602002019073ffffffffffffffffffffffffffffffffffffffff16908173ffffffffffffffffffffffffffffffffffffffff1681525050808060010191505061050a565b50809350505050919050565b6040516105218061059e8339019056fe608060405234801561001057600080fd5b506040516040806105218339810180604052604081101561003057600080fd5b810190808051906020019092919080519060200190929190505050816000800160006101000a81548173ffffffffffffffffffffffffffffffffffffffff021916908373ffffffffffffffffffffffffffffffffffffffff160217905550806000600201819055505050610478806100a96000396000f3fe608060405260043610610083576000357c0100000000000000000000000000000000000000000000000000000000900463ffffffff1680631e6be9111461008857806320965255146100b357806322a4b656146100de578063893d20e81461014a578063b688a363146101a1578063f8a0b695146101ab578063fde41e2914610217575b600080fd5b34801561009457600080fd5b5061009d610242565b6040518082815260200191505060405180910390f35b3480156100bf57600080fd5b506100c8610261565b6040518082815260200191505060405180910390f35b3480156100ea57600080fd5b506100f361026a565b6040518080602001828103825283818151815260200191508051906020019060200280838360005b8381101561013657808201518184015260208101905061011b565b505050509050019250505060405180910390f35b34801561015657600080fd5b5061015f6102fb565b604051808273ffffffffffffffffffffffffffffffffffffffff1673ffffffffffffffffffffffffffffffffffffffff16815260200191505060405180910390f35b6101a9610327565b005b3480156101b757600080fd5b506101c06103af565b6040518080602001828103825283818151815260200191508051906020019060200280838360005b838110156102035780820151818401526020810190506101e8565b505050509050019250505060405180910390f35b34801561022357600080fd5b5061022c610440565b6040518082815260200191505060405180910390f35b60003073ffffffffffffffffffffffffffffffffffffffff1631905090565b60006005905090565b606060006001018054806020026020016040519081016040528092919081815260200182805480156102f157602002820191906000526020600020905b8160009054906101000a900473ffffffffffffffffffffffffffffffffffffffff1673ffffffffffffffffffffffffffffffffffffffff16815260200190600101908083116102a7575b5050505050905090565b60008060000160009054906101000a900473ffffffffffffffffffffffffffffffffffffffff16905090565b670de0b6b3a7640000600060020154023414151561034457600080fd5b60006001013390806001815401808255809150509060018203906000526020600020016000909192909190916101000a81548173ffffffffffffffffffffffffffffffffffffffff021916908373ffffffffffffffffffffffffffffffffffffffff16021790555050565b6060600060010180548060200260200160405190810160405280929190818152602001828054801561043657602002820191906000526020600020905b8160009054906101000a900473ffffffffffffffffffffffffffffffffffffffff1673ffffffffffffffffffffffffffffffffffffffff16815260200190600101908083116103ec575b5050505050905090565b6000806002015490509056fea165627a7a7230582082906c4af4eae05eba39d3774be17751753a993f320308d2388ef56b449f91840029a165627a7a72305820b04ce85d05ee13e43e2ec16b7b97be43fe393a4c162e4a8d66bba84aea12b1ca0029",
  "source": "pragma solidity ^0.5.0;\r\n\r\ninterface IWeatherBet {\r\n    function getValue() external;\r\n}\r\n\r\n//Our factory contract , this is deployed by us as developers.\r\ncontract WeatherFactory {\r\n    address[] public bets;\r\n\r\n    function createWeatherBet(uint _value) public returns (address) {\r\n        address betAddress = address(new WeatherBet(msg.sender , _value));\r\n        bets.push(betAddress);\r\n        return betAddress;\r\n    }\r\n    function getOwnedBets(address ownerAddress) public view returns (address[] memory) {\r\n        address[] memory allBets = new address[](bets.length);\r\n        uint256 currentIndice = 0;\r\n        for (uint256 index = 0; index < bets.length; index++) {\r\n            WeatherBet bet = WeatherBet(bets[index]);\r\n            if (bet.getOwner() == ownerAddress) {\r\n                allBets[currentIndice] = address(bet);\r\n                currentIndice++;  \r\n            }\r\n        }\r\n        address[] memory ownedBets = new address[](currentIndice);\r\n        for(uint256 index = 0 ; index < currentIndice; index++){\r\n            ownedBets[index] = allBets[index]; \r\n        }\r\n        return ownedBets;\r\n    }\r\n}\r\n//abstract contract\r\ncontract Bet {\r\n    struct BetStruct{\r\n        address owner;\r\n        address[] participators;\r\n        uint betAmount;\r\n    }\r\n    BetStruct bet;\r\n\r\n    function join() payable public {\r\n        require(msg.value == bet.betAmount * 1 ether);\r\n        bet.participators.push(msg.sender);\r\n    }\r\n\r\n    function getParticipators() public view returns  (address[] memory) {\r\n        return bet.participators;\r\n    }\r\n\r\n    function getBetAmount() public view returns (uint) {\r\n        return bet.betAmount;\r\n    }\r\n\r\n    function getOwner() public view returns (address) {\r\n        return bet.owner;\r\n    }\r\n\r\n    function getStoredBalance() public view returns (uint256){\r\n        return address(this).balance;\r\n    }\r\n    function defineWinners() public view returns (address[] memory);\r\n}\r\n\r\ncontract WeatherBet is Bet, IWeatherBet {\r\n    constructor(address _owner , uint _amount) public {\r\n        bet.owner = _owner;\r\n        bet.betAmount = _amount;\r\n    }\r\n    //Everyone is a winner\r\n    function defineWinners() public view returns (address[] memory) {\r\n        return bet.participators;\r\n    }\r\n    function getValue() public view returns(uint){\r\n        return 5;\r\n    }\r\n}",
  "sourcePath": "C:/Users/Robin/Documents/GitHub/QuintorExperiment/contracts/Weather.sol",
  "compiler": {
    "name": "solc",
    "version": "0.5.0+commit.1d4f565a.Emscripten.clang"
  },
  "schemaVersion": "3.0.2",
  "updatedAt": "2019-02-18T11:44:04.150Z",
  "devdoc": {
    "methods": {}
  },
  "userdoc": {
    "methods": {}
  }
}