{
  "contractName": "BettingFactory",
  "abi": [
    {
      "constant": true,
      "inputs": [
        {
          "name": "",
          "type": "uint256"
        }
      ],
      "name": "bets",
      "outputs": [
        {
          "name": "",
          "type": "address"
        }
      ],
      "payable": false,
      "stateMutability": "view",
      "type": "function",
      "signature": "0x22af00fa"
    },
    {
      "constant": false,
      "inputs": [
        {
          "name": "_value",
          "type": "uint256"
        },
        {
          "name": "_maxParticipators",
          "type": "uint256"
        },
        {
          "name": "_open",
          "type": "bool"
        },
        {
          "name": "_friendsOnly",
          "type": "bool"
        },
        {
          "name": "_betLength",
          "type": "uint256"
        }
      ],
      "name": "createRandomNumberBet",
      "outputs": [
        {
          "name": "",
          "type": "address"
        }
      ],
      "payable": false,
      "stateMutability": "nonpayable",
      "type": "function",
      "signature": "0x4682afc1"
    },
    {
      "constant": true,
      "inputs": [
        {
          "name": "ownerAddress",
          "type": "address"
        }
      ],
      "name": "getOwnedBets",
      "outputs": [
        {
          "name": "",
          "type": "address[]"
        }
      ],
      "payable": false,
      "stateMutability": "view",
      "type": "function",
      "signature": "0xffc3dd29"
    }
  ],
  "bytecode": "0x608060405234801561001057600080fd5b506135d3806100206000396000f3fe6080604052600436106200005b576000357c0100000000000000000000000000000000000000000000000000000000900463ffffffff16806322af00fa14620000605780634682afc114620000df578063ffc3dd29146200018a575b600080fd5b3480156200006d57600080fd5b506200009d600480360360208110156200008657600080fd5b810190808035906020019092919050505062000236565b604051808273ffffffffffffffffffffffffffffffffffffffff1673ffffffffffffffffffffffffffffffffffffffff16815260200191505060405180910390f35b348015620000ec57600080fd5b5062000148600480360360a08110156200010557600080fd5b8101908080359060200190929190803590602001909291908035151590602001909291908035151590602001909291908035906020019092919050505062000275565b604051808273ffffffffffffffffffffffffffffffffffffffff1673ffffffffffffffffffffffffffffffffffffffff16815260200191505060405180910390f35b3480156200019757600080fd5b50620001dd60048036036020811015620001b057600080fd5b81019080803573ffffffffffffffffffffffffffffffffffffffff1690602001909291905050506200037c565b6040518080602001828103825283818151815260200191508051906020019060200280838360005b838110156200022257808201518184015260208101905062000205565b505050509050019250505060405180910390f35b6000818154811015156200024657fe5b906000526020600020016000915054906101000a900473ffffffffffffffffffffffffffffffffffffffff1681565b6000803387878787876200028862000609565b808773ffffffffffffffffffffffffffffffffffffffff1673ffffffffffffffffffffffffffffffffffffffff16815260200186815260200185815260200184151515158152602001831515151581526020018281526020019650505050505050604051809103906000f08015801562000306573d6000803e3d6000fd5b50905060008190806001815401808255809150509060018203906000526020600020016000909192909190916101000a81548173ffffffffffffffffffffffffffffffffffffffff021916908373ffffffffffffffffffffffffffffffffffffffff160217905550508091505095945050505050565b606080600080549050604051908082528060200260200182016040528015620003b45781602001602082028038833980820191505090505b509050600080905060008090505b600080549050811015620005465760008082815481101515620003e157fe5b9060005260206000200160009054906101000a900473ffffffffffffffffffffffffffffffffffffffff1690508573ffffffffffffffffffffffffffffffffffffffff168173ffffffffffffffffffffffffffffffffffffffff1663893d20e86040518163ffffffff167c010000000000000000000000000000000000000000000000000000000002815260040160206040518083038186803b1580156200048857600080fd5b505afa1580156200049d573d6000803e3d6000fd5b505050506040513d6020811015620004b457600080fd5b810190808051906020019092919050505073ffffffffffffffffffffffffffffffffffffffff1614156200053757808484815181101515620004f257fe5b9060200190602002019073ffffffffffffffffffffffffffffffffffffffff16908173ffffffffffffffffffffffffffffffffffffffff168152505082806001019350505b508080600101915050620003c2565b50606081604051908082528060200260200182016040528015620005795781602001602082028038833980820191505090505b50905060008090505b82811015620005fd5783818151811015156200059a57fe5b906020019060200201518282815181101515620005b357fe5b9060200190602002019073ffffffffffffffffffffffffffffffffffffffff16908173ffffffffffffffffffffffffffffffffffffffff1681525050808060010191505062000582565b50809350505050919050565b604051612f8d806200061b8339019056fe60806040523480156200001157600080fd5b5060405160c08062002f8d833981018060405260c08110156200003357600080fd5b81019080805190602001909291908051906020019092919080519060200190929190805190602001909291908051906020019092919080519060200190929190505050736f485c8bf6fc43ea212e93bbf8ce046c7f1cb475600160006101000a81548173ffffffffffffffffffffffffffffffffffffffff021916908373ffffffffffffffffffffffffffffffffffffffff160217905550600081118015620000dd575060408411155b8015620000ea5750600084115b1515620000f657600080fd5b4260056000018190555085600560020160006101000a81548173ffffffffffffffffffffffffffffffffffffffff021916908373ffffffffffffffffffffffffffffffffffffffff1602179055508460058001819055508360056006018190555082600560070160006101000a81548160ff02191690831515021790555081600560070160016101000a81548160ff0219169083151502179055506000600560070160026101000a81548160ff02191690831515021790555080603c026005600101819055506000600d60006101000a81548160ff02191690836001811115620001dc57fe5b02179055506003600e81905550620002026200020e640100000000026401000000009004565b50505050505062000ee2565b620002936040805190810160405280600c81526020017f576f6c6672616d416c70686100000000000000000000000000000000000000008152506040805190810160405280601e81526020017f72616e646f6d206e756d626572206265747765656e203120616e64203130000081525062000296640100000000026401000000009004565b50565b60008073ffffffffffffffffffffffffffffffffffffffff16600160009054906101000a900473ffffffffffffffffffffffffffffffffffffffff1673ffffffffffffffffffffffffffffffffffffffff16148062000330575060006200032e600160009054906101000a900473ffffffffffffffffffffffffffffffffffffffff166200088b640100000000026401000000009004565b145b15620003535762000351600062000896640100000000026401000000009004565b505b600160009054906101000a900473ffffffffffffffffffffffffffffffffffffffff1673ffffffffffffffffffffffffffffffffffffffff166338cc48316040518163ffffffff167c0100000000000000000000000000000000000000000000000000000000028152600401602060405180830381600087803b158015620003da57600080fd5b505af1158015620003ef573d6000803e3d6000fd5b505050506040513d60208110156200040657600080fd5b810190808051906020019092919050505073ffffffffffffffffffffffffffffffffffffffff166000809054906101000a900473ffffffffffffffffffffffffffffffffffffffff1673ffffffffffffffffffffffffffffffffffffffff161415156200057157600160009054906101000a900473ffffffffffffffffffffffffffffffffffffffff1673ffffffffffffffffffffffffffffffffffffffff166338cc48316040518163ffffffff167c0100000000000000000000000000000000000000000000000000000000028152600401602060405180830381600087803b158015620004f457600080fd5b505af115801562000509573d6000803e3d6000fd5b505050506040513d60208110156200052057600080fd5b81019080805190602001909291905050506000806101000a81548173ffffffffffffffffffffffffffffffffffffffff021916908373ffffffffffffffffffffffffffffffffffffffff1602179055505b60008060009054906101000a900473ffffffffffffffffffffffffffffffffffffffff1673ffffffffffffffffffffffffffffffffffffffff1663524f3889856040518263ffffffff167c01000000000000000000000000000000000000000000000000000000000281526004018080602001828103825283818151815260200191508051906020019080838360005b838110156200061e57808201518184015260208101905062000601565b50505050905090810190601f1680156200064c5780820380516001836020036101000a031916815260200191505b5092505050602060405180830381600087803b1580156200066c57600080fd5b505af115801562000681573d6000803e3d6000fd5b505050506040513d60208110156200069857600080fd5b8101908080519060200190929190505050905062030d403a02670de0b6b3a764000001811115620006d157600060010291505062000885565b6000809054906101000a900473ffffffffffffffffffffffffffffffffffffffff1673ffffffffffffffffffffffffffffffffffffffff1663adf59f9982600087876040518563ffffffff167c0100000000000000000000000000000000000000000000000000000000028152600401808481526020018060200180602001838103835285818151815260200191508051906020019080838360005b838110156200078a5780820151818401526020810190506200076d565b50505050905090810190601f168015620007b85780820380516001836020036101000a031916815260200191505b50838103825284818151815260200191508051906020019080838360005b83811015620007f3578082015181840152602081019050620007d6565b50505050905090810190601f168015620008215780820380516001836020036101000a031916815260200191505b50955050505050506020604051808303818588803b1580156200084357600080fd5b505af115801562000858573d6000803e3d6000fd5b50505050506040513d60208110156200087057600080fd5b81019080805190602001909291905050509150505b92915050565b6000813b9050919050565b6000620008b1620008b8640100000000026401000000009004565b9050919050565b600080620008e9731d3b2638a7cc9f2cb3d298a3da7a90b67e5506ed6200088b640100000000026401000000009004565b11156200099e57731d3b2638a7cc9f2cb3d298a3da7a90b67e5506ed600160006101000a81548173ffffffffffffffffffffffffffffffffffffffff021916908373ffffffffffffffffffffffffffffffffffffffff160217905550620009946040805190810160405280600b81526020017f6574685f6d61696e6e657400000000000000000000000000000000000000000081525062000e17640100000000026401000000009004565b6001905062000e14565b6000620009ce73c03a2615d5efaf5f49f60b7bb6583eaec212fdf16200088b640100000000026401000000009004565b111562000a835773c03a2615d5efaf5f49f60b7bb6583eaec212fdf1600160006101000a81548173ffffffffffffffffffffffffffffffffffffffff021916908373ffffffffffffffffffffffffffffffffffffffff16021790555062000a796040805190810160405280600c81526020017f6574685f726f707374656e33000000000000000000000000000000000000000081525062000e17640100000000026401000000009004565b6001905062000e14565b600062000ab373b7a07bcf2ba2f2703b24c0691b5278999c59ac7e6200088b640100000000026401000000009004565b111562000b685773b7a07bcf2ba2f2703b24c0691b5278999c59ac7e600160006101000a81548173ffffffffffffffffffffffffffffffffffffffff021916908373ffffffffffffffffffffffffffffffffffffffff16021790555062000b5e6040805190810160405280600981526020017f6574685f6b6f76616e000000000000000000000000000000000000000000000081525062000e17640100000000026401000000009004565b6001905062000e14565b600062000b9873146500cfd35b22e4a392fe0adc06de1a1368ed486200088b640100000000026401000000009004565b111562000c4d5773146500cfd35b22e4a392fe0adc06de1a1368ed48600160006101000a81548173ffffffffffffffffffffffffffffffffffffffff021916908373ffffffffffffffffffffffffffffffffffffffff16021790555062000c436040805190810160405280600b81526020017f6574685f72696e6b65627900000000000000000000000000000000000000000081525062000e17640100000000026401000000009004565b6001905062000e14565b600062000c7d736f485c8bf6fc43ea212e93bbf8ce046c7f1cb4756200088b640100000000026401000000009004565b111562000ce357736f485c8bf6fc43ea212e93bbf8ce046c7f1cb475600160006101000a81548173ffffffffffffffffffffffffffffffffffffffff021916908373ffffffffffffffffffffffffffffffffffffffff1602179055506001905062000e14565b600062000d137320e12a1f859b3feae5fb2a0a32c18f5a65555bbf6200088b640100000000026401000000009004565b111562000d79577320e12a1f859b3feae5fb2a0a32c18f5a65555bbf600160006101000a81548173ffffffffffffffffffffffffffffffffffffffff021916908373ffffffffffffffffffffffffffffffffffffffff1602179055506001905062000e14565b600062000da97351efaf4c8b3c9afbd5ab9f4bbc82784ab6ef8faa6200088b640100000000026401000000009004565b111562000e0f577351efaf4c8b3c9afbd5ab9f4bbc82784ab6ef8faa600160006101000a81548173ffffffffffffffffffffffffffffffffffffffff021916908373ffffffffffffffffffffffffffffffffffffffff1602179055506001905062000e14565b600090505b90565b806002908051906020019062000e2f92919062000e33565b5050565b828054600181600116156101000203166002900490600052602060002090601f016020900481019282601f1062000e7657805160ff191683800117855562000ea7565b8280016001018555821562000ea7579182015b8281111562000ea657825182559160200191906001019062000e89565b5b50905062000eb6919062000eba565b5090565b62000edf91905b8082111562000edb57600081600090555060010162000ec1565b5090565b90565b61209b8062000ef26000396000f3fe608060405260043610610107576000357c0100000000000000000000000000000000000000000000000000000000900463ffffffff1680631300a6d11461010c5780631e6be9111461013757806326c433841461016257806327dc297e1461019b57806338bbfa501461026d57806347535d7b146103d6578063578a2b3214610405578063893d20e81461041c57806389b5af53146104735780639189fec1146104a25780639d26c6f2146104dd578063b688a3631461050c578063bef4876b14610516578063d4a5bad414610545578063dbdff2c114610570578063df15c37e1461059b578063e6519a3514610607578063f8a0b69514610632578063fde41e291461069e575b600080fd5b34801561011857600080fd5b506101216106c9565b6040518082815260200191505060405180910390f35b34801561014357600080fd5b5061014c6106eb565b6040518082815260200191505060405180910390f35b34801561016e57600080fd5b5061017761070a565b6040518082600181111561018757fe5b60ff16815260200191505060405180910390f35b3480156101a757600080fd5b5061026b600480360360408110156101be57600080fd5b8101908080359060200190929190803590602001906401000000008111156101e557600080fd5b8201836020820111156101f757600080fd5b8035906020019184600183028401116401000000008311171561021957600080fd5b91908080601f016020809104026020016040519081016040528093929190818152602001838380828437600081840152601f19601f82011690508083019250505050505050919291929050505061071d565b005b34801561027957600080fd5b506103d46004803603606081101561029057600080fd5b8101908080359060200190929190803590602001906401000000008111156102b757600080fd5b8201836020820111156102c957600080fd5b803590602001918460018302840111640100000000831117156102eb57600080fd5b91908080601f016020809104026020016040519081016040528093929190818152602001838380828437600081840152601f19601f8201169050808301925050505050505091929192908035906020019064010000000081111561034e57600080fd5b82018360208201111561036057600080fd5b8035906020019184600183028401116401000000008311171561038257600080fd5b91908080601f016020809104026020016040519081016040528093929190818152602001838380828437600081840152601f19601f820116905080830192505050505050509192919290505050610771565b005b3480156103e257600080fd5b506103eb610776565b604051808215151515815260200191505060405180910390f35b34801561041157600080fd5b5061041a610790565b005b34801561042857600080fd5b50610431610807565b604051808273ffffffffffffffffffffffffffffffffffffffff1673ffffffffffffffffffffffffffffffffffffffff16815260200191505060405180910390f35b34801561047f57600080fd5b50610488610834565b604051808215151515815260200191505060405180910390f35b3480156104ae57600080fd5b506104db600480360360208110156104c557600080fd5b810190808035906020019092919050505061093c565b005b3480156104e957600080fd5b506104f2610ae7565b604051808215151515815260200191505060405180910390f35b610514610af7565b005b34801561052257600080fd5b5061052b610c27565b604051808215151515815260200191505060405180910390f35b34801561055157600080fd5b5061055a610c41565b6040518082815260200191505060405180910390f35b34801561057c57600080fd5b50610585610d0f565b6040518082815260200191505060405180910390f35b3480156105a757600080fd5b506105b0610d19565b6040518080602001828103825283818151815260200191508051906020019060200280838360005b838110156105f35780820151818401526020810190506105d8565b505050509050019250505060405180910390f35b34801561061357600080fd5b5061061c610dcf565b6040518082815260200191505060405180910390f35b34801561063e57600080fd5b50610647610ddc565b6040518080602001828103825283818151815260200191508051906020019060200280838360005b8381101561068a57808201518184015260208101905061066f565b505050509050019250505060405180910390f35b3480156106aa57600080fd5b506106b3610e6d565b6040518082815260200191505060405180910390f35b6000603c6005600101540242600560000154038115156106e557fe5b04905090565b60003073ffffffffffffffffffffffffffffffffffffffff1631905090565b600d60009054906101000a900460ff1681565b610725610e79565b73ffffffffffffffffffffffffffffffffffffffff163373ffffffffffffffffffffffffffffffffffffffff1614151561075e57600080fd5b610767816111ec565b600f819055505050565b505050565b6000600560070160009054906101000a900460ff16905090565b6108046040805190810160405280600c81526020017f576f6c6672616d416c70686100000000000000000000000000000000000000008152506040805190810160405280601e81526020017f72616e646f6d206e756d626572206265747765656e203120616e642031300000815250611200565b50565b6000600560020160009054906101000a900473ffffffffffffffffffffffffffffffffffffffff16905090565b6000600560020160009054906101000a900473ffffffffffffffffffffffffffffffffffffffff1673ffffffffffffffffffffffffffffffffffffffff163373ffffffffffffffffffffffffffffffffffffffff16141515610924576040517f08c379a00000000000000000000000000000000000000000000000000000000081526004018080602001828103825260228152602001807f4f6e6c79206f776e65722063616e2063616c6c20746869732066756e6374696f81526020017f6e2e00000000000000000000000000000000000000000000000000000000000081525060400191505060405180910390fd5b600560070160019054906101000a900460ff16905090565b60011515610949336117b9565b15151415156109c0576040517f08c379a00000000000000000000000000000000000000000000000000000000081526004018080602001828103825260208152602001807f596f75206861766520746f206a6f696e2074686973206265742066697273742e81525060200191505060405180910390fd5b600e54601060003373ffffffffffffffffffffffffffffffffffffffff1673ffffffffffffffffffffffffffffffffffffffff16815260200190815260200160002080549050101515610a7b576040517f08c379a000000000000000000000000000000000000000000000000000000000815260040180806020018281038252601e8152602001807f43616e6e6f74206775657373206d6f7265207468616e20332074696d6573000081525060200191505060405180910390fd5b601060003373ffffffffffffffffffffffffffffffffffffffff1673ffffffffffffffffffffffffffffffffffffffff16815260200190815260200160002081908060018154018082558091505090600182039060005260206000200160009091929091909150555050565b6000610af2336117b9565b905090565b670de0b6b3a764000060058001540234141515610b7c576040517f08c379a000000000000000000000000000000000000000000000000000000000815260040180806020018281038252600f8152602001807f52657175697265732045746865722e000000000000000000000000000000000081525060200191505060405180910390fd5b60011515600560070160009054906101000a900460ff161515141515610ba157600080fd5b60001515610bae336117b9565b1515141515610bbc57600080fd5b60056003013390806001815401808255809150509060018203906000526020600020016000909192909190916101000a81548173ffffffffffffffffffffffffffffffffffffffff021916908373ffffffffffffffffffffffffffffffffffffffff16021790555050565b6000600560070160029054906101000a900460ff16905090565b600060011515610c50336117b9565b1515141515610cc7576040517f08c379a00000000000000000000000000000000000000000000000000000000081526004018080602001828103825260208152602001807f596f75206861766520746f206a6f696e2074686973206265742066697273742e81525060200191505060405180910390fd5b601060003373ffffffffffffffffffffffffffffffffffffffff1673ffffffffffffffffffffffffffffffffffffffff16815260200190815260200160002080549050905090565b6000600f54905090565b606060011515600560070160029054906101000a900460ff161515141515610d4057600080fd5b6005600401805480602002602001604051908101604052809291908181526020018280548015610dc557602002820191906000526020600020905b8160009054906101000a900473ffffffffffffffffffffffffffffffffffffffff1673ffffffffffffffffffffffffffffffffffffffff1681526020019060010190808311610d7b575b5050505050905090565b6000600560000154905090565b60606005600301805480602002602001604051908101604052809291908181526020018280548015610e6357602002820191906000526020600020905b8160009054906101000a900473ffffffffffffffffffffffffffffffffffffffff1673ffffffffffffffffffffffffffffffffffffffff1681526020019060010190808311610e19575b5050505050905090565b60006005800154905090565b60008073ffffffffffffffffffffffffffffffffffffffff16600160009054906101000a900473ffffffffffffffffffffffffffffffffffffffff1673ffffffffffffffffffffffffffffffffffffffff161480610f0157506000610eff600160009054906101000a900473ffffffffffffffffffffffffffffffffffffffff16611863565b145b15610f1257610f10600061186e565b505b600160009054906101000a900473ffffffffffffffffffffffffffffffffffffffff1673ffffffffffffffffffffffffffffffffffffffff166338cc48316040518163ffffffff167c0100000000000000000000000000000000000000000000000000000000028152600401602060405180830381600087803b158015610f9857600080fd5b505af1158015610fac573d6000803e3d6000fd5b505050506040513d6020811015610fc257600080fd5b810190808051906020019092919050505073ffffffffffffffffffffffffffffffffffffffff166000809054906101000a900473ffffffffffffffffffffffffffffffffffffffff1673ffffffffffffffffffffffffffffffffffffffff1614151561112957600160009054906101000a900473ffffffffffffffffffffffffffffffffffffffff1673ffffffffffffffffffffffffffffffffffffffff166338cc48316040518163ffffffff167c0100000000000000000000000000000000000000000000000000000000028152600401602060405180830381600087803b1580156110ae57600080fd5b505af11580156110c2573d6000803e3d6000fd5b505050506040513d60208110156110d857600080fd5b81019080805190602001909291905050506000806101000a81548173ffffffffffffffffffffffffffffffffffffffff021916908373ffffffffffffffffffffffffffffffffffffffff1602179055505b6000809054906101000a900473ffffffffffffffffffffffffffffffffffffffff1673ffffffffffffffffffffffffffffffffffffffff1663c281d19e6040518163ffffffff167c010000000000000000000000000000000000000000000000000000000002815260040160206040518083038186803b1580156111ac57600080fd5b505afa1580156111c0573d6000803e3d6000fd5b505050506040513d60208110156111d657600080fd5b8101908080519060200190929190505050905090565b60006111f982600061187f565b9050919050565b60008073ffffffffffffffffffffffffffffffffffffffff16600160009054906101000a900473ffffffffffffffffffffffffffffffffffffffff1673ffffffffffffffffffffffffffffffffffffffff16148061128857506000611286600160009054906101000a900473ffffffffffffffffffffffffffffffffffffffff16611863565b145b1561129957611297600061186e565b505b600160009054906101000a900473ffffffffffffffffffffffffffffffffffffffff1673ffffffffffffffffffffffffffffffffffffffff166338cc48316040518163ffffffff167c0100000000000000000000000000000000000000000000000000000000028152600401602060405180830381600087803b15801561131f57600080fd5b505af1158015611333573d6000803e3d6000fd5b505050506040513d602081101561134957600080fd5b810190808051906020019092919050505073ffffffffffffffffffffffffffffffffffffffff166000809054906101000a900473ffffffffffffffffffffffffffffffffffffffff1673ffffffffffffffffffffffffffffffffffffffff161415156114b057600160009054906101000a900473ffffffffffffffffffffffffffffffffffffffff1673ffffffffffffffffffffffffffffffffffffffff166338cc48316040518163ffffffff167c0100000000000000000000000000000000000000000000000000000000028152600401602060405180830381600087803b15801561143557600080fd5b505af1158015611449573d6000803e3d6000fd5b505050506040513d602081101561145f57600080fd5b81019080805190602001909291905050506000806101000a81548173ffffffffffffffffffffffffffffffffffffffff021916908373ffffffffffffffffffffffffffffffffffffffff1602179055505b60008060009054906101000a900473ffffffffffffffffffffffffffffffffffffffff1673ffffffffffffffffffffffffffffffffffffffff1663524f3889856040518263ffffffff167c01000000000000000000000000000000000000000000000000000000000281526004018080602001828103825283818151815260200191508051906020019080838360005b8381101561155b578082015181840152602081019050611540565b50505050905090810190601f1680156115885780820380516001836020036101000a031916815260200191505b5092505050602060405180830381600087803b1580156115a757600080fd5b505af11580156115bb573d6000803e3d6000fd5b505050506040513d60208110156115d157600080fd5b8101908080519060200190929190505050905062030d403a02670de0b6b3a7640000018111156116085760006001029150506117b3565b6000809054906101000a900473ffffffffffffffffffffffffffffffffffffffff1673ffffffffffffffffffffffffffffffffffffffff1663adf59f9982600087876040518563ffffffff167c0100000000000000000000000000000000000000000000000000000000028152600401808481526020018060200180602001838103835285818151815260200191508051906020019080838360005b838110156116bf5780820151818401526020810190506116a4565b50505050905090810190601f1680156116ec5780820380516001836020036101000a031916815260200191505b50838103825284818151815260200191508051906020019080838360005b8381101561172557808201518184015260208101905061170a565b50505050905090810190601f1680156117525780820380516001836020036101000a031916815260200191505b50955050505050506020604051808303818588803b15801561177357600080fd5b505af1158015611787573d6000803e3d6000fd5b50505050506040513d602081101561179e57600080fd5b81019080805190602001909291905050509150505b92915050565b600080600090505b600560030180549050811015611858578273ffffffffffffffffffffffffffffffffffffffff166005600301828154811015156117fa57fe5b9060005260206000200160009054906101000a900473ffffffffffffffffffffffffffffffffffffffff1673ffffffffffffffffffffffffffffffffffffffff16141561184b57600191505061185e565b80806001019150506117c1565b50600090505b919050565b6000813b9050919050565b6000611878611b1a565b9050919050565b600060608390506000809050600080905060008090505b8351811015611afb57603084828151811015156118af57fe5b9060200101517f010000000000000000000000000000000000000000000000000000000000000090047f0100000000000000000000000000000000000000000000000000000000000000027f0100000000000000000000000000000000000000000000000000000000000000900460ff16101580156119ad57506039848281518110151561193957fe5b9060200101517f010000000000000000000000000000000000000000000000000000000000000090047f0100000000000000000000000000000000000000000000000000000000000000027f0100000000000000000000000000000000000000000000000000000000000000900460ff1611155b15611a615781156119d05760008614156119c657611afb565b8580600190039650505b600a83029250603084828151811015156119e657fe5b9060200101517f010000000000000000000000000000000000000000000000000000000000000090047f0100000000000000000000000000000000000000000000000000000000000000027f0100000000000000000000000000000000000000000000000000000000000000900460ff160383019250611aee565b602e8482815181101515611a7157fe5b9060200101517f010000000000000000000000000000000000000000000000000000000000000090047f0100000000000000000000000000000000000000000000000000000000000000027f0100000000000000000000000000000000000000000000000000000000000000900460ff161415611aed57600191505b5b8080600101915050611896565b506000851115611b0e5784600a0a820291505b81935050505092915050565b600080611b3a731d3b2638a7cc9f2cb3d298a3da7a90b67e5506ed611863565b1115611bdc57731d3b2638a7cc9f2cb3d298a3da7a90b67e5506ed600160006101000a81548173ffffffffffffffffffffffffffffffffffffffff021916908373ffffffffffffffffffffffffffffffffffffffff160217905550611bd36040805190810160405280600b81526020017f6574685f6d61696e6e6574000000000000000000000000000000000000000000815250611fb0565b60019050611fad565b6000611bfb73c03a2615d5efaf5f49f60b7bb6583eaec212fdf1611863565b1115611c9d5773c03a2615d5efaf5f49f60b7bb6583eaec212fdf1600160006101000a81548173ffffffffffffffffffffffffffffffffffffffff021916908373ffffffffffffffffffffffffffffffffffffffff160217905550611c946040805190810160405280600c81526020017f6574685f726f707374656e330000000000000000000000000000000000000000815250611fb0565b60019050611fad565b6000611cbc73b7a07bcf2ba2f2703b24c0691b5278999c59ac7e611863565b1115611d5e5773b7a07bcf2ba2f2703b24c0691b5278999c59ac7e600160006101000a81548173ffffffffffffffffffffffffffffffffffffffff021916908373ffffffffffffffffffffffffffffffffffffffff160217905550611d556040805190810160405280600981526020017f6574685f6b6f76616e0000000000000000000000000000000000000000000000815250611fb0565b60019050611fad565b6000611d7d73146500cfd35b22e4a392fe0adc06de1a1368ed48611863565b1115611e1f5773146500cfd35b22e4a392fe0adc06de1a1368ed48600160006101000a81548173ffffffffffffffffffffffffffffffffffffffff021916908373ffffffffffffffffffffffffffffffffffffffff160217905550611e166040805190810160405280600b81526020017f6574685f72696e6b656279000000000000000000000000000000000000000000815250611fb0565b60019050611fad565b6000611e3e736f485c8bf6fc43ea212e93bbf8ce046c7f1cb475611863565b1115611ea257736f485c8bf6fc43ea212e93bbf8ce046c7f1cb475600160006101000a81548173ffffffffffffffffffffffffffffffffffffffff021916908373ffffffffffffffffffffffffffffffffffffffff16021790555060019050611fad565b6000611ec17320e12a1f859b3feae5fb2a0a32c18f5a65555bbf611863565b1115611f25577320e12a1f859b3feae5fb2a0a32c18f5a65555bbf600160006101000a81548173ffffffffffffffffffffffffffffffffffffffff021916908373ffffffffffffffffffffffffffffffffffffffff16021790555060019050611fad565b6000611f447351efaf4c8b3c9afbd5ab9f4bbc82784ab6ef8faa611863565b1115611fa8577351efaf4c8b3c9afbd5ab9f4bbc82784ab6ef8faa600160006101000a81548173ffffffffffffffffffffffffffffffffffffffff021916908373ffffffffffffffffffffffffffffffffffffffff16021790555060019050611fad565b600090505b90565b8060029080519060200190611fc6929190611fca565b5050565b828054600181600116156101000203166002900490600052602060002090601f016020900481019282601f1061200b57805160ff1916838001178555612039565b82800160010185558215612039579182015b8281111561203857825182559160200191906001019061201d565b5b509050612046919061204a565b5090565b61206c91905b80821115612068576000816000905550600101612050565b5090565b9056fea165627a7a72305820b65b8b8032640a30a4ea254658be02c97dc608165a88e57c974595eaf73032cd0029a165627a7a72305820c5704375d2dfbbb4b25fb9f4f6aa78fb410718911729f46a7f86918444f63d730029",
  "source": "pragma solidity ^0.5.0;\r\n\r\nimport \"./RandomNumberBet.sol\";\r\n//Will be needed to create bets through composition.\r\n//Our factory contract , this is deployed by us as developers.\r\ncontract BettingFactory {\r\n    address[] public bets;\r\n\r\n    //Instantiates a new Weather bet\r\n    // function createWeatherBet(uint _value, uint _maxParticipators, bool _open, bool _friendsOnly, uint _betLength) public returns (address) {\r\n    //     address betAddress = address(new WeatherBet(msg.sender , _value , _maxParticipators , _open , _friendsOnly , _betLength));\r\n    //     bets.push(betAddress);\r\n    //     return betAddress;\r\n    // }\r\n    \r\n\r\n    //Instantiates a new Random Number Bet\r\n    function createRandomNumberBet(uint _value, uint _maxParticipators, bool _open, bool _friendsOnly, uint _betLength) public returns (address) {\r\n        address betAddress = address(new RandomNumberBet(msg.sender , _value , _maxParticipators , _open , _friendsOnly , _betLength));\r\n        bets.push(betAddress);\r\n        return betAddress;\r\n    }\r\n\r\n    //Gets all current bets that a user has.\r\n    function getOwnedBets(address ownerAddress) public view returns (address[] memory) {\r\n        address[] memory allBets = new address[](bets.length);\r\n        uint256 currentIndice = 0;\r\n        for (uint256 index = 0; index < bets.length; index++) {\r\n            Bet bet = Bet(bets[index]);\r\n            if (bet.getOwner() == ownerAddress) {\r\n                allBets[currentIndice] = address(bet);\r\n                currentIndice++;  \r\n            }\r\n        }\r\n        address[] memory ownedBets = new address[](currentIndice);\r\n        for (uint256 index = 0 ; index < currentIndice; index++) {\r\n            ownedBets[index] = allBets[index]; \r\n        }\r\n        return ownedBets;\r\n    }\r\n}\r\n",
  "sourcePath": "C:/Users/Robin/Documents/GitHub/QuintorExperiment/contracts/BettingFactory.sol",
  "compiler": {
    "name": "solc",
    "version": "0.5.0+commit.1d4f565a.Emscripten.clang"
  },
  "schemaVersion": "3.0.2",
  "updatedAt": "2019-03-18T09:27:52.116Z",
  "devdoc": {
    "methods": {}
  },
  "userdoc": {
    "methods": {}
  }
}