{
  "contractName": "RandomNumberBet",
  "abi": [
    {
      "constant": true,
      "inputs": [],
      "name": "timeLeft",
      "outputs": [
        {
          "name": "",
          "type": "uint256"
        }
      ],
      "payable": false,
      "stateMutability": "view",
      "type": "function"
    },
    {
      "constant": true,
      "inputs": [],
      "name": "getStoredBalance",
      "outputs": [
        {
          "name": "",
          "type": "uint256"
        }
      ],
      "payable": false,
      "stateMutability": "view",
      "type": "function"
    },
    {
      "constant": true,
      "inputs": [],
      "name": "betType",
      "outputs": [
        {
          "name": "",
          "type": "uint8"
        }
      ],
      "payable": false,
      "stateMutability": "view",
      "type": "function"
    },
    {
      "constant": true,
      "inputs": [],
      "name": "isOpen",
      "outputs": [
        {
          "name": "",
          "type": "bool"
        }
      ],
      "payable": false,
      "stateMutability": "view",
      "type": "function"
    },
    {
      "constant": true,
      "inputs": [],
      "name": "getOwner",
      "outputs": [
        {
          "name": "",
          "type": "address"
        }
      ],
      "payable": false,
      "stateMutability": "view",
      "type": "function"
    },
    {
      "constant": true,
      "inputs": [],
      "name": "friendsOnly",
      "outputs": [
        {
          "name": "",
          "type": "bool"
        }
      ],
      "payable": false,
      "stateMutability": "view",
      "type": "function"
    },
    {
      "constant": false,
      "inputs": [],
      "name": "join",
      "outputs": [],
      "payable": true,
      "stateMutability": "payable",
      "type": "function"
    },
    {
      "constant": true,
      "inputs": [],
      "name": "finished",
      "outputs": [
        {
          "name": "",
          "type": "bool"
        }
      ],
      "payable": false,
      "stateMutability": "view",
      "type": "function"
    },
    {
      "constant": true,
      "inputs": [],
      "name": "getWinners",
      "outputs": [
        {
          "name": "",
          "type": "address[]"
        }
      ],
      "payable": false,
      "stateMutability": "view",
      "type": "function"
    },
    {
      "constant": true,
      "inputs": [],
      "name": "getCreationTime",
      "outputs": [
        {
          "name": "",
          "type": "uint256"
        }
      ],
      "payable": false,
      "stateMutability": "view",
      "type": "function"
    },
    {
      "constant": true,
      "inputs": [],
      "name": "getParticipators",
      "outputs": [
        {
          "name": "",
          "type": "address[]"
        }
      ],
      "payable": false,
      "stateMutability": "view",
      "type": "function"
    },
    {
      "constant": true,
      "inputs": [],
      "name": "getBetAmount",
      "outputs": [
        {
          "name": "",
          "type": "uint256"
        }
      ],
      "payable": false,
      "stateMutability": "view",
      "type": "function"
    },
    {
      "inputs": [
        {
          "name": "_owner",
          "type": "address"
        },
        {
          "name": "_amount",
          "type": "uint256"
        },
        {
          "name": "_maxParticipators",
          "type": "uint256"
        },
        {
          "name": "_open",
          "type": "bool"
        },
        {
          "name": "_friendsOnly",
          "type": "bool"
        },
        {
          "name": "_betLength",
          "type": "uint256"
        }
      ],
      "payable": false,
      "stateMutability": "nonpayable",
      "type": "constructor"
    },
    {
      "anonymous": false,
      "inputs": [
        {
          "indexed": false,
          "name": "price",
          "type": "string"
        }
      ],
      "name": "LogRandomNumber",
      "type": "event"
    },
    {
      "constant": false,
      "inputs": [
        {
          "name": "myid",
          "type": "bytes32"
        },
        {
          "name": "result",
          "type": "string"
        }
      ],
      "name": "__callback",
      "outputs": [],
      "payable": false,
      "stateMutability": "nonpayable",
      "type": "function"
    },
    {
      "constant": false,
      "inputs": [
        {
          "name": "_myid",
          "type": "bytes32"
        },
        {
          "name": "_result",
          "type": "string"
        },
        {
          "name": "_proof",
          "type": "bytes"
        }
      ],
      "name": "__callback",
      "outputs": [],
      "payable": false,
      "stateMutability": "nonpayable",
      "type": "function"
    },
    {
      "constant": false,
      "inputs": [
        {
          "name": "guessValue",
          "type": "uint256"
        }
      ],
      "name": "guess",
      "outputs": [],
      "payable": false,
      "stateMutability": "nonpayable",
      "type": "function"
    },
    {
      "constant": true,
      "inputs": [],
      "name": "guessesLeft",
      "outputs": [
        {
          "name": "",
          "type": "uint256"
        }
      ],
      "payable": false,
      "stateMutability": "view",
      "type": "function"
    },
    {
      "constant": true,
      "inputs": [],
      "name": "getRandomNumber",
      "outputs": [
        {
          "name": "",
          "type": "uint256"
        }
      ],
      "payable": false,
      "stateMutability": "view",
      "type": "function"
    }
  ],
  "bytecode": "0x60806040523480156200001157600080fd5b5060405160c08062002d09833981018060405260c08110156200003357600080fd5b81019080805190602001909291908051906020019092919080519060200190929190805190602001909291908051906020019092919080519060200190929190505050736f485c8bf6fc43ea212e93bbf8ce046c7f1cb475600160006101000a81548173ffffffffffffffffffffffffffffffffffffffff021916908373ffffffffffffffffffffffffffffffffffffffff160217905550600081118015620000dd575060408411155b8015620000ea5750600084115b1515620000f657600080fd5b4260056000018190555085600560020160006101000a81548173ffffffffffffffffffffffffffffffffffffffff021916908373ffffffffffffffffffffffffffffffffffffffff1602179055508460058001819055508360056006018190555082600560070160006101000a81548160ff02191690831515021790555081600560070160016101000a81548160ff0219169083151502179055506000600560070160026101000a81548160ff02191690831515021790555080603c026005600101819055506000600d60006101000a81548160ff02191690836001811115620001dc57fe5b02179055506003600e81905550620002026200020e640100000000026401000000009004565b50505050505062000ee8565b620002996005600101546040805190810160405280600c81526020017f576f6c6672616d416c70686100000000000000000000000000000000000000008152506040805190810160405280601e81526020017f72616e646f6d206e756d626572206265747765656e203120616e6420313000008152506200029c640100000000026401000000009004565b50565b60008073ffffffffffffffffffffffffffffffffffffffff16600160009054906101000a900473ffffffffffffffffffffffffffffffffffffffff1673ffffffffffffffffffffffffffffffffffffffff161480620003365750600062000334600160009054906101000a900473ffffffffffffffffffffffffffffffffffffffff1662000891640100000000026401000000009004565b145b1562000359576200035760006200089c640100000000026401000000009004565b505b600160009054906101000a900473ffffffffffffffffffffffffffffffffffffffff1673ffffffffffffffffffffffffffffffffffffffff166338cc48316040518163ffffffff167c0100000000000000000000000000000000000000000000000000000000028152600401602060405180830381600087803b158015620003e057600080fd5b505af1158015620003f5573d6000803e3d6000fd5b505050506040513d60208110156200040c57600080fd5b810190808051906020019092919050505073ffffffffffffffffffffffffffffffffffffffff166000809054906101000a900473ffffffffffffffffffffffffffffffffffffffff1673ffffffffffffffffffffffffffffffffffffffff161415156200057757600160009054906101000a900473ffffffffffffffffffffffffffffffffffffffff1673ffffffffffffffffffffffffffffffffffffffff166338cc48316040518163ffffffff167c0100000000000000000000000000000000000000000000000000000000028152600401602060405180830381600087803b158015620004fa57600080fd5b505af11580156200050f573d6000803e3d6000fd5b505050506040513d60208110156200052657600080fd5b81019080805190602001909291905050506000806101000a81548173ffffffffffffffffffffffffffffffffffffffff021916908373ffffffffffffffffffffffffffffffffffffffff1602179055505b60008060009054906101000a900473ffffffffffffffffffffffffffffffffffffffff1673ffffffffffffffffffffffffffffffffffffffff1663524f3889856040518263ffffffff167c01000000000000000000000000000000000000000000000000000000000281526004018080602001828103825283818151815260200191508051906020019080838360005b838110156200062457808201518184015260208101905062000607565b50505050905090810190601f168015620006525780820380516001836020036101000a031916815260200191505b5092505050602060405180830381600087803b1580156200067257600080fd5b505af115801562000687573d6000803e3d6000fd5b505050506040513d60208110156200069e57600080fd5b8101908080519060200190929190505050905062030d403a02670de0b6b3a764000001811115620006d75760006001029150506200088a565b6000809054906101000a900473ffffffffffffffffffffffffffffffffffffffff1673ffffffffffffffffffffffffffffffffffffffff1663adf59f99828787876040518563ffffffff167c0100000000000000000000000000000000000000000000000000000000028152600401808481526020018060200180602001838103835285818151815260200191508051906020019080838360005b838110156200078f57808201518184015260208101905062000772565b50505050905090810190601f168015620007bd5780820380516001836020036101000a031916815260200191505b50838103825284818151815260200191508051906020019080838360005b83811015620007f8578082015181840152602081019050620007db565b50505050905090810190601f168015620008265780820380516001836020036101000a031916815260200191505b50955050505050506020604051808303818588803b1580156200084857600080fd5b505af11580156200085d573d6000803e3d6000fd5b50505050506040513d60208110156200087557600080fd5b81019080805190602001909291905050509150505b9392505050565b6000813b9050919050565b6000620008b7620008be640100000000026401000000009004565b9050919050565b600080620008ef731d3b2638a7cc9f2cb3d298a3da7a90b67e5506ed62000891640100000000026401000000009004565b1115620009a457731d3b2638a7cc9f2cb3d298a3da7a90b67e5506ed600160006101000a81548173ffffffffffffffffffffffffffffffffffffffff021916908373ffffffffffffffffffffffffffffffffffffffff1602179055506200099a6040805190810160405280600b81526020017f6574685f6d61696e6e657400000000000000000000000000000000000000000081525062000e1d640100000000026401000000009004565b6001905062000e1a565b6000620009d473c03a2615d5efaf5f49f60b7bb6583eaec212fdf162000891640100000000026401000000009004565b111562000a895773c03a2615d5efaf5f49f60b7bb6583eaec212fdf1600160006101000a81548173ffffffffffffffffffffffffffffffffffffffff021916908373ffffffffffffffffffffffffffffffffffffffff16021790555062000a7f6040805190810160405280600c81526020017f6574685f726f707374656e33000000000000000000000000000000000000000081525062000e1d640100000000026401000000009004565b6001905062000e1a565b600062000ab973b7a07bcf2ba2f2703b24c0691b5278999c59ac7e62000891640100000000026401000000009004565b111562000b6e5773b7a07bcf2ba2f2703b24c0691b5278999c59ac7e600160006101000a81548173ffffffffffffffffffffffffffffffffffffffff021916908373ffffffffffffffffffffffffffffffffffffffff16021790555062000b646040805190810160405280600981526020017f6574685f6b6f76616e000000000000000000000000000000000000000000000081525062000e1d640100000000026401000000009004565b6001905062000e1a565b600062000b9e73146500cfd35b22e4a392fe0adc06de1a1368ed4862000891640100000000026401000000009004565b111562000c535773146500cfd35b22e4a392fe0adc06de1a1368ed48600160006101000a81548173ffffffffffffffffffffffffffffffffffffffff021916908373ffffffffffffffffffffffffffffffffffffffff16021790555062000c496040805190810160405280600b81526020017f6574685f72696e6b65627900000000000000000000000000000000000000000081525062000e1d640100000000026401000000009004565b6001905062000e1a565b600062000c83736f485c8bf6fc43ea212e93bbf8ce046c7f1cb47562000891640100000000026401000000009004565b111562000ce957736f485c8bf6fc43ea212e93bbf8ce046c7f1cb475600160006101000a81548173ffffffffffffffffffffffffffffffffffffffff021916908373ffffffffffffffffffffffffffffffffffffffff1602179055506001905062000e1a565b600062000d197320e12a1f859b3feae5fb2a0a32c18f5a65555bbf62000891640100000000026401000000009004565b111562000d7f577320e12a1f859b3feae5fb2a0a32c18f5a65555bbf600160006101000a81548173ffffffffffffffffffffffffffffffffffffffff021916908373ffffffffffffffffffffffffffffffffffffffff1602179055506001905062000e1a565b600062000daf7351efaf4c8b3c9afbd5ab9f4bbc82784ab6ef8faa62000891640100000000026401000000009004565b111562000e15577351efaf4c8b3c9afbd5ab9f4bbc82784ab6ef8faa600160006101000a81548173ffffffffffffffffffffffffffffffffffffffff021916908373ffffffffffffffffffffffffffffffffffffffff1602179055506001905062000e1a565b600090505b90565b806002908051906020019062000e3592919062000e39565b5050565b828054600181600116156101000203166002900490600052602060002090601f016020900481019282601f1062000e7c57805160ff191683800117855562000ead565b8280016001018555821562000ead579182015b8281111562000eac57825182559160200191906001019062000e8f565b5b50905062000ebc919062000ec0565b5090565b62000ee591905b8082111562000ee157600081600090555060010162000ec7565b5090565b90565b611e118062000ef86000396000f3fe6080604052600436106100f1576000357c0100000000000000000000000000000000000000000000000000000000900463ffffffff1680631300a6d1146100f65780631e6be9111461012157806326c433841461014c57806327dc297e1461018557806338bbfa501461025757806347535d7b146103c0578063893d20e8146103ef57806389b5af53146104465780639189fec114610475578063b688a363146104b0578063bef4876b146104ba578063d4a5bad4146104e9578063dbdff2c114610514578063df15c37e1461053f578063e6519a35146105ab578063f8a0b695146105d6578063fde41e2914610642575b600080fd5b34801561010257600080fd5b5061010b61066d565b6040518082815260200191505060405180910390f35b34801561012d57600080fd5b5061013661068f565b6040518082815260200191505060405180910390f35b34801561015857600080fd5b506101616106ae565b6040518082600181111561017157fe5b60ff16815260200191505060405180910390f35b34801561019157600080fd5b50610255600480360360408110156101a857600080fd5b8101908080359060200190929190803590602001906401000000008111156101cf57600080fd5b8201836020820111156101e157600080fd5b8035906020019184600183028401116401000000008311171561020357600080fd5b91908080601f016020809104026020016040519081016040528093929190818152602001838380828437600081840152601f19601f8201169050808301925050505050505091929192905050506106c1565b005b34801561026357600080fd5b506103be6004803603606081101561027a57600080fd5b8101908080359060200190929190803590602001906401000000008111156102a157600080fd5b8201836020820111156102b357600080fd5b803590602001918460018302840111640100000000831117156102d557600080fd5b91908080601f016020809104026020016040519081016040528093929190818152602001838380828437600081840152601f19601f8201169050808301925050505050505091929192908035906020019064010000000081111561033857600080fd5b82018360208201111561034a57600080fd5b8035906020019184600183028401116401000000008311171561036c57600080fd5b91908080601f016020809104026020016040519081016040528093929190818152602001838380828437600081840152601f19601f8201169050808301925050505050505091929192905050506107ba565b005b3480156103cc57600080fd5b506103d56107bf565b604051808215151515815260200191505060405180910390f35b3480156103fb57600080fd5b506104046107d9565b604051808273ffffffffffffffffffffffffffffffffffffffff1673ffffffffffffffffffffffffffffffffffffffff16815260200191505060405180910390f35b34801561045257600080fd5b5061045b610806565b604051808215151515815260200191505060405180910390f35b34801561048157600080fd5b506104ae6004803603602081101561049857600080fd5b810190808035906020019092919050505061090e565b005b6104b8610ab9565b005b3480156104c657600080fd5b506104cf610be9565b604051808215151515815260200191505060405180910390f35b3480156104f557600080fd5b506104fe610c03565b6040518082815260200191505060405180910390f35b34801561052057600080fd5b50610529610cd1565b6040518082815260200191505060405180910390f35b34801561054b57600080fd5b50610554610cdb565b6040518080602001828103825283818151815260200191508051906020019060200280838360005b8381101561059757808201518184015260208101905061057c565b505050509050019250505060405180910390f35b3480156105b757600080fd5b506105c0610d91565b6040518082815260200191505060405180910390f35b3480156105e257600080fd5b506105eb610d9e565b6040518080602001828103825283818151815260200191508051906020019060200280838360005b8381101561062e578082015181840152602081019050610613565b505050509050019250505060405180910390f35b34801561064e57600080fd5b50610657610e2f565b6040518082815260200191505060405180910390f35b6000603c60056001015402426005600001540381151561068957fe5b04905090565b60003073ffffffffffffffffffffffffffffffffffffffff1631905090565b600d60009054906101000a900460ff1681565b6106c9610e3b565b73ffffffffffffffffffffffffffffffffffffffff163373ffffffffffffffffffffffffffffffffffffffff1614151561070257600080fd5b61070b816111ae565b600f819055506107196111c2565b507f1c5c3711df5aac2dea21605b5be8641fe1726565c3642e3a502f0e05156d1686816040518080602001828103825283818151815260200191508051906020019080838360005b8381101561077c578082015181840152602081019050610761565b50505050905090810190601f1680156107a95780820380516001836020036101000a031916815260200191505b509250505060405180910390a15050565b505050565b6000600560070160009054906101000a900460ff16905090565b6000600560020160009054906101000a900473ffffffffffffffffffffffffffffffffffffffff16905090565b6000600560020160009054906101000a900473ffffffffffffffffffffffffffffffffffffffff1673ffffffffffffffffffffffffffffffffffffffff163373ffffffffffffffffffffffffffffffffffffffff161415156108f6576040517f08c379a00000000000000000000000000000000000000000000000000000000081526004018080602001828103825260228152602001807f4f6e6c79206f776e65722063616e2063616c6c20746869732066756e6374696f81526020017f6e2e00000000000000000000000000000000000000000000000000000000000081525060400191505060405180910390fd5b600560070160019054906101000a900460ff16905090565b6001151561091b33611432565b1515141515610992576040517f08c379a00000000000000000000000000000000000000000000000000000000081526004018080602001828103825260208152602001807f596f75206861766520746f206a6f696e2074686973206265742066697273742e81525060200191505060405180910390fd5b600e54601060003373ffffffffffffffffffffffffffffffffffffffff1673ffffffffffffffffffffffffffffffffffffffff16815260200190815260200160002080549050101515610a4d576040517f08c379a000000000000000000000000000000000000000000000000000000000815260040180806020018281038252601e8152602001807f43616e6e6f74206775657373206d6f7265207468616e20332074696d6573000081525060200191505060405180910390fd5b601060003373ffffffffffffffffffffffffffffffffffffffff1673ffffffffffffffffffffffffffffffffffffffff16815260200190815260200160002081908060018154018082558091505090600182039060005260206000200160009091929091909150555050565b670de0b6b3a764000060058001540234141515610b3e576040517f08c379a000000000000000000000000000000000000000000000000000000000815260040180806020018281038252600f8152602001807f52657175697265732045746865722e000000000000000000000000000000000081525060200191505060405180910390fd5b60011515600560070160009054906101000a900460ff161515141515610b6357600080fd5b60001515610b7033611432565b1515141515610b7e57600080fd5b60056003013390806001815401808255809150509060018203906000526020600020016000909192909190916101000a81548173ffffffffffffffffffffffffffffffffffffffff021916908373ffffffffffffffffffffffffffffffffffffffff16021790555050565b6000600560070160029054906101000a900460ff16905090565b600060011515610c1233611432565b1515141515610c89576040517f08c379a00000000000000000000000000000000000000000000000000000000081526004018080602001828103825260208152602001807f596f75206861766520746f206a6f696e2074686973206265742066697273742e81525060200191505060405180910390fd5b601060003373ffffffffffffffffffffffffffffffffffffffff1673ffffffffffffffffffffffffffffffffffffffff16815260200190815260200160002080549050905090565b6000600f54905090565b606060011515600560070160029054906101000a900460ff161515141515610d0257600080fd5b6005600401805480602002602001604051908101604052809291908181526020018280548015610d8757602002820191906000526020600020905b8160009054906101000a900473ffffffffffffffffffffffffffffffffffffffff1673ffffffffffffffffffffffffffffffffffffffff1681526020019060010190808311610d3d575b5050505050905090565b6000600560000154905090565b60606005600301805480602002602001604051908101604052809291908181526020018280548015610e2557602002820191906000526020600020905b8160009054906101000a900473ffffffffffffffffffffffffffffffffffffffff1673ffffffffffffffffffffffffffffffffffffffff1681526020019060010190808311610ddb575b5050505050905090565b60006005800154905090565b60008073ffffffffffffffffffffffffffffffffffffffff16600160009054906101000a900473ffffffffffffffffffffffffffffffffffffffff1673ffffffffffffffffffffffffffffffffffffffff161480610ec357506000610ec1600160009054906101000a900473ffffffffffffffffffffffffffffffffffffffff166114dc565b145b15610ed457610ed260006114e7565b505b600160009054906101000a900473ffffffffffffffffffffffffffffffffffffffff1673ffffffffffffffffffffffffffffffffffffffff166338cc48316040518163ffffffff167c0100000000000000000000000000000000000000000000000000000000028152600401602060405180830381600087803b158015610f5a57600080fd5b505af1158015610f6e573d6000803e3d6000fd5b505050506040513d6020811015610f8457600080fd5b810190808051906020019092919050505073ffffffffffffffffffffffffffffffffffffffff166000809054906101000a900473ffffffffffffffffffffffffffffffffffffffff1673ffffffffffffffffffffffffffffffffffffffff161415156110eb57600160009054906101000a900473ffffffffffffffffffffffffffffffffffffffff1673ffffffffffffffffffffffffffffffffffffffff166338cc48316040518163ffffffff167c0100000000000000000000000000000000000000000000000000000000028152600401602060405180830381600087803b15801561107057600080fd5b505af1158015611084573d6000803e3d6000fd5b505050506040513d602081101561109a57600080fd5b81019080805190602001909291905050506000806101000a81548173ffffffffffffffffffffffffffffffffffffffff021916908373ffffffffffffffffffffffffffffffffffffffff1602179055505b6000809054906101000a900473ffffffffffffffffffffffffffffffffffffffff1673ffffffffffffffffffffffffffffffffffffffff1663c281d19e6040518163ffffffff167c010000000000000000000000000000000000000000000000000000000002815260040160206040518083038186803b15801561116e57600080fd5b505afa158015611182573d6000803e3d6000fd5b505050506040513d602081101561119857600080fd5b8101908080519060200190929190505050905090565b60006111bb8260006114f8565b9050919050565b606060008090505b60056003018054905081101561139a576060601060006005600301848154811015156111f257fe5b9060005260206000200160009054906101000a900473ffffffffffffffffffffffffffffffffffffffff1673ffffffffffffffffffffffffffffffffffffffff1673ffffffffffffffffffffffffffffffffffffffff1681526020019081526020016000208054806020026020016040519081016040528092919081815260200182805480156112a157602002820191906000526020600020905b81548152602001906001019080831161128d575b5050505050905060008090505b815181101561138b57600f5482828151811015156112c857fe5b90602001906020020151141561137e5760056004016005600301848154811015156112ef57fe5b9060005260206000200160009054906101000a900473ffffffffffffffffffffffffffffffffffffffff1690806001815401808255809150509060018203906000526020600020016000909192909190916101000a81548173ffffffffffffffffffffffffffffffffffffffff021916908373ffffffffffffffffffffffffffffffffffffffff160217905550505b80806001019150506112ae565b505080806001019150506111ca565b506113a3611793565b600560040180548060200260200160405190810160405280929190818152602001828054801561142857602002820191906000526020600020905b8160009054906101000a900473ffffffffffffffffffffffffffffffffffffffff1673ffffffffffffffffffffffffffffffffffffffff16815260200190600101908083116113de575b5050505050905090565b600080600090505b6005600301805490508110156114d1578273ffffffffffffffffffffffffffffffffffffffff1660056003018281548110151561147357fe5b9060005260206000200160009054906101000a900473ffffffffffffffffffffffffffffffffffffffff1673ffffffffffffffffffffffffffffffffffffffff1614156114c45760019150506114d7565b808060010191505061143a565b50600090505b919050565b6000813b9050919050565b60006114f1611890565b9050919050565b600060608390506000809050600080905060008090505b8351811015611774576030848281518110151561152857fe5b9060200101517f010000000000000000000000000000000000000000000000000000000000000090047f0100000000000000000000000000000000000000000000000000000000000000027f0100000000000000000000000000000000000000000000000000000000000000900460ff16101580156116265750603984828151811015156115b257fe5b9060200101517f010000000000000000000000000000000000000000000000000000000000000090047f0100000000000000000000000000000000000000000000000000000000000000027f0100000000000000000000000000000000000000000000000000000000000000900460ff1611155b156116da57811561164957600086141561163f57611774565b8580600190039650505b600a830292506030848281518110151561165f57fe5b9060200101517f010000000000000000000000000000000000000000000000000000000000000090047f0100000000000000000000000000000000000000000000000000000000000000027f0100000000000000000000000000000000000000000000000000000000000000900460ff160383019250611767565b602e84828151811015156116ea57fe5b9060200101517f010000000000000000000000000000000000000000000000000000000000000090047f0100000000000000000000000000000000000000000000000000000000000000027f0100000000000000000000000000000000000000000000000000000000000000900460ff16141561176657600191505b5b808060010191505061150f565b5060008511156117875784600a0a820291505b81935050505092915050565b60006005600401805490503073ffffffffffffffffffffffffffffffffffffffff16318115156117bf57fe5b04905060008090505b60056004018054905081101561186e5760006005600401828154811015156117ec57fe5b9060005260206000200160009054906101000a900473ffffffffffffffffffffffffffffffffffffffff1690508073ffffffffffffffffffffffffffffffffffffffff166108fc849081150290604051600060405180830381858888f1935050505015801561185f573d6000803e3d6000fd5b505080806001019150506117c8565b506001600560070160026101000a81548160ff02191690831515021790555050565b6000806118b0731d3b2638a7cc9f2cb3d298a3da7a90b67e5506ed6114dc565b111561195257731d3b2638a7cc9f2cb3d298a3da7a90b67e5506ed600160006101000a81548173ffffffffffffffffffffffffffffffffffffffff021916908373ffffffffffffffffffffffffffffffffffffffff1602179055506119496040805190810160405280600b81526020017f6574685f6d61696e6e6574000000000000000000000000000000000000000000815250611d26565b60019050611d23565b600061197173c03a2615d5efaf5f49f60b7bb6583eaec212fdf16114dc565b1115611a135773c03a2615d5efaf5f49f60b7bb6583eaec212fdf1600160006101000a81548173ffffffffffffffffffffffffffffffffffffffff021916908373ffffffffffffffffffffffffffffffffffffffff160217905550611a0a6040805190810160405280600c81526020017f6574685f726f707374656e330000000000000000000000000000000000000000815250611d26565b60019050611d23565b6000611a3273b7a07bcf2ba2f2703b24c0691b5278999c59ac7e6114dc565b1115611ad45773b7a07bcf2ba2f2703b24c0691b5278999c59ac7e600160006101000a81548173ffffffffffffffffffffffffffffffffffffffff021916908373ffffffffffffffffffffffffffffffffffffffff160217905550611acb6040805190810160405280600981526020017f6574685f6b6f76616e0000000000000000000000000000000000000000000000815250611d26565b60019050611d23565b6000611af373146500cfd35b22e4a392fe0adc06de1a1368ed486114dc565b1115611b955773146500cfd35b22e4a392fe0adc06de1a1368ed48600160006101000a81548173ffffffffffffffffffffffffffffffffffffffff021916908373ffffffffffffffffffffffffffffffffffffffff160217905550611b8c6040805190810160405280600b81526020017f6574685f72696e6b656279000000000000000000000000000000000000000000815250611d26565b60019050611d23565b6000611bb4736f485c8bf6fc43ea212e93bbf8ce046c7f1cb4756114dc565b1115611c1857736f485c8bf6fc43ea212e93bbf8ce046c7f1cb475600160006101000a81548173ffffffffffffffffffffffffffffffffffffffff021916908373ffffffffffffffffffffffffffffffffffffffff16021790555060019050611d23565b6000611c377320e12a1f859b3feae5fb2a0a32c18f5a65555bbf6114dc565b1115611c9b577320e12a1f859b3feae5fb2a0a32c18f5a65555bbf600160006101000a81548173ffffffffffffffffffffffffffffffffffffffff021916908373ffffffffffffffffffffffffffffffffffffffff16021790555060019050611d23565b6000611cba7351efaf4c8b3c9afbd5ab9f4bbc82784ab6ef8faa6114dc565b1115611d1e577351efaf4c8b3c9afbd5ab9f4bbc82784ab6ef8faa600160006101000a81548173ffffffffffffffffffffffffffffffffffffffff021916908373ffffffffffffffffffffffffffffffffffffffff16021790555060019050611d23565b600090505b90565b8060029080519060200190611d3c929190611d40565b5050565b828054600181600116156101000203166002900490600052602060002090601f016020900481019282601f10611d8157805160ff1916838001178555611daf565b82800160010185558215611daf579182015b82811115611dae578251825591602001919060010190611d93565b5b509050611dbc9190611dc0565b5090565b611de291905b80821115611dde576000816000905550600101611dc6565b5090565b9056fea165627a7a72305820200b93bdcf8776c1af29bc77670887c5e65544c7c5698c38d9402fc9cd3ce11a0029",
  "source": "pragma solidity ^0.5.0;\r\n\r\nimport \"./Bet.sol\";\r\nimport \"./IRandomNumberBet.sol\";\r\n\r\n//Todo Add events for winners\r\ncontract RandomNumberBet is Bet , IRandomNumberBet {\r\n    uint amountOfGuesses;\r\n    //Todo , make private/local\r\n    uint256 private randomNumber;\r\n    mapping(address => uint[]) guesses;\r\n\r\n    constructor(address _owner , uint _amount , uint _maxParticipators , bool _open , bool _friendsOnly , uint _betLength) public  {\r\n        OAR = OraclizeAddrResolverI(0x6f485C8BF6fc43eA212E93BBF8ce046C7f1cb475);\r\n        require(_betLength > 0 && _maxParticipators <= 64 && _maxParticipators > 0);\r\n        bet.creationTime = now;\r\n        bet.owner = _owner;\r\n        bet.betAmount = _amount;\r\n        bet.maxParticipators = _maxParticipators;\r\n        bet.open = _open;\r\n        bet.friendsOnly = _friendsOnly;\r\n        bet.finished = false;\r\n        bet.betLength = (1 minutes * _betLength);\r\n        betType = BetType.RandomNumberBet;\r\n        amountOfGuesses = 3;\r\n        createRandomNumber();\r\n    }\r\n\r\n    event LogRandomNumber(string price);\r\n    \r\n    //Function that is called after completion of the Oraclize query.\r\n    function __callback(bytes32 myid, string memory result) public {\r\n        if (msg.sender != oraclize_cbAddress()) revert();\r\n        randomNumber = parseInt(result);\r\n        //after the number has been decided , the winners will be decided.\r\n        //TODO???\r\n        defineWinners();\r\n        emit LogRandomNumber(result);\r\n    }\r\n\r\n    //Creates a random number by the use of a real world api through the query method.\r\n    //TODO, Create mutex so it can only be done once\r\n    function createRandomNumber() private {\r\n        //Query for the future , betlength = time in minutes after creation of the bet.\r\n        oraclize_query(bet.betLength,\"WolframAlpha\", \"random number between 1 and 10\");\r\n    }\r\n\r\n    //Defines the winners\r\n    function defineWinners() private returns (address[] memory){\r\n        //loop through participants\r\n        //use participants addresses to look up at in mapping\r\n        for(uint x = 0 ; x < bet.participators.length ; x++){\r\n            uint[] memory values = guesses[bet.participators[x]];\r\n            for(uint y = 0 ; y<values.length;y++){\r\n                if(values[y] == randomNumber){\r\n                    bet.winners.push(bet.participators[x]);\r\n                }\r\n            }\r\n        }\r\n        divideWinnings();\r\n        return bet.winners;\r\n    }\r\n\r\n    //Divide the balance among winners\r\n    function divideWinnings() private {\r\n        uint part = address(this).balance / bet.winners.length;\r\n        for(uint index = 0 ; index < bet.winners.length;index++){\r\n            //Casting address to payable address\r\n            address payable winner = address(uint160(bet.winners[index]));\r\n            winner.transfer(part);\r\n        }\r\n        //bet has finished\r\n        bet.finished = true;\r\n    }\r\n\r\n    //You cannot guess more than X times\r\n    function guess(uint guessValue) public participating {\r\n        require(guesses[msg.sender].length < amountOfGuesses , \"Cannot guess more than 3 times\");\r\n        //require(userAlreadyJoined(msg.sender) == true);\r\n        guesses[msg.sender].push(guessValue);\r\n    }\r\n\r\n    //Returns number of guesses left for this bet.\r\n    function guessesLeft() public participating view returns(uint) {\r\n        return guesses[msg.sender].length;\r\n    }\r\n\r\n    //gets the winning number , TODO , hide it from public.\r\n    //Testing purposes only.\r\n    function getRandomNumber() public view returns(uint){\r\n        return randomNumber;\r\n    }\r\n}",
  "sourcePath": "C:\\Users\\Robin\\Documents\\GitHub\\QuintorExperiment\\contracts\\RandomNumberBet.sol",
  "compiler": {
    "name": "solc",
    "version": "0.5.0+commit.1d4f565a.Emscripten.clang"
  },
  "schemaVersion": "3.0.2",
  "updatedAt": "2019-03-16T15:49:36.970Z",
  "devdoc": {
    "methods": {}
  },
  "userdoc": {
    "methods": {}
  }
}