{
  "contractName": "RandomNumberBet",
  "abi": [
    {
      "constant": true,
      "inputs": [],
      "name": "timeLeft",
      "outputs": [
        {
          "name": "",
          "type": "uint256"
        }
      ],
      "payable": false,
      "stateMutability": "view",
      "type": "function"
    },
    {
      "constant": true,
      "inputs": [],
      "name": "getStoredBalance",
      "outputs": [
        {
          "name": "",
          "type": "uint256"
        }
      ],
      "payable": false,
      "stateMutability": "view",
      "type": "function"
    },
    {
      "constant": true,
      "inputs": [],
      "name": "isOpen",
      "outputs": [
        {
          "name": "",
          "type": "bool"
        }
      ],
      "payable": false,
      "stateMutability": "view",
      "type": "function"
    },
    {
      "constant": true,
      "inputs": [],
      "name": "getOwner",
      "outputs": [
        {
          "name": "",
          "type": "address"
        }
      ],
      "payable": false,
      "stateMutability": "view",
      "type": "function"
    },
    {
      "constant": true,
      "inputs": [],
      "name": "friendsOnly",
      "outputs": [
        {
          "name": "",
          "type": "bool"
        }
      ],
      "payable": false,
      "stateMutability": "view",
      "type": "function"
    },
    {
      "constant": false,
      "inputs": [],
      "name": "join",
      "outputs": [],
      "payable": true,
      "stateMutability": "payable",
      "type": "function"
    },
    {
      "constant": true,
      "inputs": [],
      "name": "finished",
      "outputs": [
        {
          "name": "",
          "type": "bool"
        }
      ],
      "payable": false,
      "stateMutability": "view",
      "type": "function"
    },
    {
      "constant": true,
      "inputs": [],
      "name": "getWinners",
      "outputs": [
        {
          "name": "",
          "type": "address[]"
        }
      ],
      "payable": false,
      "stateMutability": "view",
      "type": "function"
    },
    {
      "constant": true,
      "inputs": [],
      "name": "getCreationTime",
      "outputs": [
        {
          "name": "",
          "type": "uint256"
        }
      ],
      "payable": false,
      "stateMutability": "view",
      "type": "function"
    },
    {
      "constant": true,
      "inputs": [],
      "name": "getParticipators",
      "outputs": [
        {
          "name": "",
          "type": "address[]"
        }
      ],
      "payable": false,
      "stateMutability": "view",
      "type": "function"
    },
    {
      "constant": true,
      "inputs": [],
      "name": "getBetAmount",
      "outputs": [
        {
          "name": "",
          "type": "uint256"
        }
      ],
      "payable": false,
      "stateMutability": "view",
      "type": "function"
    },
    {
      "inputs": [
        {
          "name": "_owner",
          "type": "address"
        },
        {
          "name": "_amount",
          "type": "uint256"
        },
        {
          "name": "_maxParticipators",
          "type": "uint256"
        },
        {
          "name": "_open",
          "type": "bool"
        },
        {
          "name": "_friendsOnly",
          "type": "bool"
        },
        {
          "name": "_betLength",
          "type": "uint256"
        }
      ],
      "payable": false,
      "stateMutability": "nonpayable",
      "type": "constructor"
    },
    {
      "anonymous": false,
      "inputs": [
        {
          "indexed": false,
          "name": "price",
          "type": "string"
        }
      ],
      "name": "LogRandomNumber",
      "type": "event"
    },
    {
      "constant": false,
      "inputs": [
        {
          "name": "myid",
          "type": "bytes32"
        },
        {
          "name": "result",
          "type": "string"
        }
      ],
      "name": "__callback",
      "outputs": [],
      "payable": false,
      "stateMutability": "nonpayable",
      "type": "function"
    },
    {
      "constant": false,
      "inputs": [
        {
          "name": "_myid",
          "type": "bytes32"
        },
        {
          "name": "_result",
          "type": "string"
        },
        {
          "name": "_proof",
          "type": "bytes"
        }
      ],
      "name": "__callback",
      "outputs": [],
      "payable": false,
      "stateMutability": "nonpayable",
      "type": "function"
    },
    {
      "constant": false,
      "inputs": [
        {
          "name": "guessValue",
          "type": "uint256"
        }
      ],
      "name": "guess",
      "outputs": [],
      "payable": false,
      "stateMutability": "nonpayable",
      "type": "function"
    },
    {
      "constant": true,
      "inputs": [],
      "name": "getRandomNumber",
      "outputs": [
        {
          "name": "",
          "type": "uint256"
        }
      ],
      "payable": false,
      "stateMutability": "view",
      "type": "function"
    }
  ],
  "bytecode": "0x60806040523480156200001157600080fd5b5060405160c08062002b80833981018060405260c08110156200003357600080fd5b81019080805190602001909291908051906020019092919080519060200190929190805190602001909291908051906020019092919080519060200190929190505050736f485c8bf6fc43ea212e93bbf8ce046c7f1cb475600160006101000a81548173ffffffffffffffffffffffffffffffffffffffff021916908373ffffffffffffffffffffffffffffffffffffffff160217905550600081118015620000dd575060408411155b8015620000ea5750600084115b1515620000f657600080fd5b4260056000018190555085600560020160006101000a81548173ffffffffffffffffffffffffffffffffffffffff021916908373ffffffffffffffffffffffffffffffffffffffff1602179055508460058001819055508360056006018190555082600560070160006101000a81548160ff02191690831515021790555081600560070160016101000a81548160ff0219169083151502179055506000600560070160026101000a81548160ff02191690831515021790555080603c02600560010181905550620001d5620001e1640100000000026401000000009004565b50505050505062000ebb565b6200026c6005600101546040805190810160405280600c81526020017f576f6c6672616d416c70686100000000000000000000000000000000000000008152506040805190810160405280601e81526020017f72616e646f6d206e756d626572206265747765656e203120616e6420313000008152506200026f640100000000026401000000009004565b50565b60008073ffffffffffffffffffffffffffffffffffffffff16600160009054906101000a900473ffffffffffffffffffffffffffffffffffffffff1673ffffffffffffffffffffffffffffffffffffffff161480620003095750600062000307600160009054906101000a900473ffffffffffffffffffffffffffffffffffffffff1662000864640100000000026401000000009004565b145b156200032c576200032a60006200086f640100000000026401000000009004565b505b600160009054906101000a900473ffffffffffffffffffffffffffffffffffffffff1673ffffffffffffffffffffffffffffffffffffffff166338cc48316040518163ffffffff167c0100000000000000000000000000000000000000000000000000000000028152600401602060405180830381600087803b158015620003b357600080fd5b505af1158015620003c8573d6000803e3d6000fd5b505050506040513d6020811015620003df57600080fd5b810190808051906020019092919050505073ffffffffffffffffffffffffffffffffffffffff166000809054906101000a900473ffffffffffffffffffffffffffffffffffffffff1673ffffffffffffffffffffffffffffffffffffffff161415156200054a57600160009054906101000a900473ffffffffffffffffffffffffffffffffffffffff1673ffffffffffffffffffffffffffffffffffffffff166338cc48316040518163ffffffff167c0100000000000000000000000000000000000000000000000000000000028152600401602060405180830381600087803b158015620004cd57600080fd5b505af1158015620004e2573d6000803e3d6000fd5b505050506040513d6020811015620004f957600080fd5b81019080805190602001909291905050506000806101000a81548173ffffffffffffffffffffffffffffffffffffffff021916908373ffffffffffffffffffffffffffffffffffffffff1602179055505b60008060009054906101000a900473ffffffffffffffffffffffffffffffffffffffff1673ffffffffffffffffffffffffffffffffffffffff1663524f3889856040518263ffffffff167c01000000000000000000000000000000000000000000000000000000000281526004018080602001828103825283818151815260200191508051906020019080838360005b83811015620005f7578082015181840152602081019050620005da565b50505050905090810190601f168015620006255780820380516001836020036101000a031916815260200191505b5092505050602060405180830381600087803b1580156200064557600080fd5b505af11580156200065a573d6000803e3d6000fd5b505050506040513d60208110156200067157600080fd5b8101908080519060200190929190505050905062030d403a02670de0b6b3a764000001811115620006aa5760006001029150506200085d565b6000809054906101000a900473ffffffffffffffffffffffffffffffffffffffff1673ffffffffffffffffffffffffffffffffffffffff1663adf59f99828787876040518563ffffffff167c0100000000000000000000000000000000000000000000000000000000028152600401808481526020018060200180602001838103835285818151815260200191508051906020019080838360005b838110156200076257808201518184015260208101905062000745565b50505050905090810190601f168015620007905780820380516001836020036101000a031916815260200191505b50838103825284818151815260200191508051906020019080838360005b83811015620007cb578082015181840152602081019050620007ae565b50505050905090810190601f168015620007f95780820380516001836020036101000a031916815260200191505b50955050505050506020604051808303818588803b1580156200081b57600080fd5b505af115801562000830573d6000803e3d6000fd5b50505050506040513d60208110156200084857600080fd5b81019080805190602001909291905050509150505b9392505050565b6000813b9050919050565b60006200088a62000891640100000000026401000000009004565b9050919050565b600080620008c2731d3b2638a7cc9f2cb3d298a3da7a90b67e5506ed62000864640100000000026401000000009004565b11156200097757731d3b2638a7cc9f2cb3d298a3da7a90b67e5506ed600160006101000a81548173ffffffffffffffffffffffffffffffffffffffff021916908373ffffffffffffffffffffffffffffffffffffffff1602179055506200096d6040805190810160405280600b81526020017f6574685f6d61696e6e657400000000000000000000000000000000000000000081525062000df0640100000000026401000000009004565b6001905062000ded565b6000620009a773c03a2615d5efaf5f49f60b7bb6583eaec212fdf162000864640100000000026401000000009004565b111562000a5c5773c03a2615d5efaf5f49f60b7bb6583eaec212fdf1600160006101000a81548173ffffffffffffffffffffffffffffffffffffffff021916908373ffffffffffffffffffffffffffffffffffffffff16021790555062000a526040805190810160405280600c81526020017f6574685f726f707374656e33000000000000000000000000000000000000000081525062000df0640100000000026401000000009004565b6001905062000ded565b600062000a8c73b7a07bcf2ba2f2703b24c0691b5278999c59ac7e62000864640100000000026401000000009004565b111562000b415773b7a07bcf2ba2f2703b24c0691b5278999c59ac7e600160006101000a81548173ffffffffffffffffffffffffffffffffffffffff021916908373ffffffffffffffffffffffffffffffffffffffff16021790555062000b376040805190810160405280600981526020017f6574685f6b6f76616e000000000000000000000000000000000000000000000081525062000df0640100000000026401000000009004565b6001905062000ded565b600062000b7173146500cfd35b22e4a392fe0adc06de1a1368ed4862000864640100000000026401000000009004565b111562000c265773146500cfd35b22e4a392fe0adc06de1a1368ed48600160006101000a81548173ffffffffffffffffffffffffffffffffffffffff021916908373ffffffffffffffffffffffffffffffffffffffff16021790555062000c1c6040805190810160405280600b81526020017f6574685f72696e6b65627900000000000000000000000000000000000000000081525062000df0640100000000026401000000009004565b6001905062000ded565b600062000c56736f485c8bf6fc43ea212e93bbf8ce046c7f1cb47562000864640100000000026401000000009004565b111562000cbc57736f485c8bf6fc43ea212e93bbf8ce046c7f1cb475600160006101000a81548173ffffffffffffffffffffffffffffffffffffffff021916908373ffffffffffffffffffffffffffffffffffffffff1602179055506001905062000ded565b600062000cec7320e12a1f859b3feae5fb2a0a32c18f5a65555bbf62000864640100000000026401000000009004565b111562000d52577320e12a1f859b3feae5fb2a0a32c18f5a65555bbf600160006101000a81548173ffffffffffffffffffffffffffffffffffffffff021916908373ffffffffffffffffffffffffffffffffffffffff1602179055506001905062000ded565b600062000d827351efaf4c8b3c9afbd5ab9f4bbc82784ab6ef8faa62000864640100000000026401000000009004565b111562000de8577351efaf4c8b3c9afbd5ab9f4bbc82784ab6ef8faa600160006101000a81548173ffffffffffffffffffffffffffffffffffffffff021916908373ffffffffffffffffffffffffffffffffffffffff1602179055506001905062000ded565b600090505b90565b806002908051906020019062000e0892919062000e0c565b5050565b828054600181600116156101000203166002900490600052602060002090601f016020900481019282601f1062000e4f57805160ff191683800117855562000e80565b8280016001018555821562000e80579182015b8281111562000e7f57825182559160200191906001019062000e62565b5b50905062000e8f919062000e93565b5090565b62000eb891905b8082111562000eb457600081600090555060010162000e9a565b5090565b90565b611cb58062000ecb6000396000f3fe6080604052600436106100db576000357c0100000000000000000000000000000000000000000000000000000000900463ffffffff1680631300a6d1146100e05780631e6be9111461010b57806327dc297e1461013657806338bbfa501461020857806347535d7b14610371578063893d20e8146103a057806389b5af53146103f75780639189fec114610426578063b688a36314610461578063bef4876b1461046b578063dbdff2c11461049a578063df15c37e146104c5578063e6519a3514610531578063f8a0b6951461055c578063fde41e29146105c8575b600080fd5b3480156100ec57600080fd5b506100f56105f3565b6040518082815260200191505060405180910390f35b34801561011757600080fd5b50610120610615565b6040518082815260200191505060405180910390f35b34801561014257600080fd5b506102066004803603604081101561015957600080fd5b81019080803590602001909291908035906020019064010000000081111561018057600080fd5b82018360208201111561019257600080fd5b803590602001918460018302840111640100000000831117156101b457600080fd5b91908080601f016020809104026020016040519081016040528093929190818152602001838380828437600081840152601f19601f820116905080830192505050505050509192919290505050610634565b005b34801561021457600080fd5b5061036f6004803603606081101561022b57600080fd5b81019080803590602001909291908035906020019064010000000081111561025257600080fd5b82018360208201111561026457600080fd5b8035906020019184600183028401116401000000008311171561028657600080fd5b91908080601f016020809104026020016040519081016040528093929190818152602001838380828437600081840152601f19601f820116905080830192505050505050509192919290803590602001906401000000008111156102e957600080fd5b8201836020820111156102fb57600080fd5b8035906020019184600183028401116401000000008311171561031d57600080fd5b91908080601f016020809104026020016040519081016040528093929190818152602001838380828437600081840152601f19601f82011690508083019250505050505050919291929050505061072d565b005b34801561037d57600080fd5b50610386610732565b604051808215151515815260200191505060405180910390f35b3480156103ac57600080fd5b506103b561083a565b604051808273ffffffffffffffffffffffffffffffffffffffff1673ffffffffffffffffffffffffffffffffffffffff16815260200191505060405180910390f35b34801561040357600080fd5b5061040c610867565b604051808215151515815260200191505060405180910390f35b34801561043257600080fd5b5061045f6004803603602081101561044957600080fd5b8101908080359060200190929190505050610881565b005b610469610a2b565b005b34801561047757600080fd5b50610480610b5b565b604051808215151515815260200191505060405180910390f35b3480156104a657600080fd5b506104af610b75565b6040518082815260200191505060405180910390f35b3480156104d157600080fd5b506104da610b7f565b6040518080602001828103825283818151815260200191508051906020019060200280838360005b8381101561051d578082015181840152602081019050610502565b505050509050019250505060405180910390f35b34801561053d57600080fd5b50610546610c35565b6040518082815260200191505060405180910390f35b34801561056857600080fd5b50610571610c42565b6040518080602001828103825283818151815260200191508051906020019060200280838360005b838110156105b4578082015181840152602081019050610599565b505050509050019250505060405180910390f35b3480156105d457600080fd5b506105dd610cd3565b6040518082815260200191505060405180910390f35b6000603c60056001015402426005600001540381151561060f57fe5b04905090565b60003073ffffffffffffffffffffffffffffffffffffffff1631905090565b61063c610cdf565b73ffffffffffffffffffffffffffffffffffffffff163373ffffffffffffffffffffffffffffffffffffffff1614151561067557600080fd5b61067e81611052565b600d8190555061068c611066565b507f1c5c3711df5aac2dea21605b5be8641fe1726565c3642e3a502f0e05156d1686816040518080602001828103825283818151815260200191508051906020019080838360005b838110156106ef5780820151818401526020810190506106d4565b50505050905090810190601f16801561071c5780820380516001836020036101000a031916815260200191505b509250505060405180910390a15050565b505050565b6000600560020160009054906101000a900473ffffffffffffffffffffffffffffffffffffffff1673ffffffffffffffffffffffffffffffffffffffff163373ffffffffffffffffffffffffffffffffffffffff16141515610822576040517f08c379a00000000000000000000000000000000000000000000000000000000081526004018080602001828103825260228152602001807f4f6e6c79206f776e65722063616e2063616c6c20746869732066756e6374696f81526020017f6e2e00000000000000000000000000000000000000000000000000000000000081525060400191505060405180910390fd5b600560070160009054906101000a900460ff16905090565b6000600560020160009054906101000a900473ffffffffffffffffffffffffffffffffffffffff16905090565b6000600560070160019054906101000a900460ff16905090565b6001151561088e336112d6565b1515141515610905576040517f08c379a00000000000000000000000000000000000000000000000000000000081526004018080602001828103825260208152602001807f596f75206861766520746f206a6f696e2074686973206265742066697273742e81525060200191505060405180910390fd5b6003600e60003373ffffffffffffffffffffffffffffffffffffffff1673ffffffffffffffffffffffffffffffffffffffff168152602001908152602001600020805490501015156109bf576040517f08c379a000000000000000000000000000000000000000000000000000000000815260040180806020018281038252601e8152602001807f43616e6e6f74206775657373206d6f7265207468616e20332074696d6573000081525060200191505060405180910390fd5b600e60003373ffffffffffffffffffffffffffffffffffffffff1673ffffffffffffffffffffffffffffffffffffffff16815260200190815260200160002081908060018154018082558091505090600182039060005260206000200160009091929091909150555050565b670de0b6b3a764000060058001540234141515610ab0576040517f08c379a000000000000000000000000000000000000000000000000000000000815260040180806020018281038252600f8152602001807f52657175697265732045746865722e000000000000000000000000000000000081525060200191505060405180910390fd5b60011515600560070160009054906101000a900460ff161515141515610ad557600080fd5b60001515610ae2336112d6565b1515141515610af057600080fd5b60056003013390806001815401808255809150509060018203906000526020600020016000909192909190916101000a81548173ffffffffffffffffffffffffffffffffffffffff021916908373ffffffffffffffffffffffffffffffffffffffff16021790555050565b6000600560070160029054906101000a900460ff16905090565b6000600d54905090565b606060011515600560070160029054906101000a900460ff161515141515610ba657600080fd5b6005600401805480602002602001604051908101604052809291908181526020018280548015610c2b57602002820191906000526020600020905b8160009054906101000a900473ffffffffffffffffffffffffffffffffffffffff1673ffffffffffffffffffffffffffffffffffffffff1681526020019060010190808311610be1575b5050505050905090565b6000600560000154905090565b60606005600301805480602002602001604051908101604052809291908181526020018280548015610cc957602002820191906000526020600020905b8160009054906101000a900473ffffffffffffffffffffffffffffffffffffffff1673ffffffffffffffffffffffffffffffffffffffff1681526020019060010190808311610c7f575b5050505050905090565b60006005800154905090565b60008073ffffffffffffffffffffffffffffffffffffffff16600160009054906101000a900473ffffffffffffffffffffffffffffffffffffffff1673ffffffffffffffffffffffffffffffffffffffff161480610d6757506000610d65600160009054906101000a900473ffffffffffffffffffffffffffffffffffffffff16611380565b145b15610d7857610d76600061138b565b505b600160009054906101000a900473ffffffffffffffffffffffffffffffffffffffff1673ffffffffffffffffffffffffffffffffffffffff166338cc48316040518163ffffffff167c0100000000000000000000000000000000000000000000000000000000028152600401602060405180830381600087803b158015610dfe57600080fd5b505af1158015610e12573d6000803e3d6000fd5b505050506040513d6020811015610e2857600080fd5b810190808051906020019092919050505073ffffffffffffffffffffffffffffffffffffffff166000809054906101000a900473ffffffffffffffffffffffffffffffffffffffff1673ffffffffffffffffffffffffffffffffffffffff16141515610f8f57600160009054906101000a900473ffffffffffffffffffffffffffffffffffffffff1673ffffffffffffffffffffffffffffffffffffffff166338cc48316040518163ffffffff167c0100000000000000000000000000000000000000000000000000000000028152600401602060405180830381600087803b158015610f1457600080fd5b505af1158015610f28573d6000803e3d6000fd5b505050506040513d6020811015610f3e57600080fd5b81019080805190602001909291905050506000806101000a81548173ffffffffffffffffffffffffffffffffffffffff021916908373ffffffffffffffffffffffffffffffffffffffff1602179055505b6000809054906101000a900473ffffffffffffffffffffffffffffffffffffffff1673ffffffffffffffffffffffffffffffffffffffff1663c281d19e6040518163ffffffff167c010000000000000000000000000000000000000000000000000000000002815260040160206040518083038186803b15801561101257600080fd5b505afa158015611026573d6000803e3d6000fd5b505050506040513d602081101561103c57600080fd5b8101908080519060200190929190505050905090565b600061105f82600061139c565b9050919050565b606060008090505b60056003018054905081101561123e576060600e600060056003018481548110151561109657fe5b9060005260206000200160009054906101000a900473ffffffffffffffffffffffffffffffffffffffff1673ffffffffffffffffffffffffffffffffffffffff1673ffffffffffffffffffffffffffffffffffffffff16815260200190815260200160002080548060200260200160405190810160405280929190818152602001828054801561114557602002820191906000526020600020905b815481526020019060010190808311611131575b5050505050905060008090505b815181101561122f57600d54828281518110151561116c57fe5b90602001906020020151141561122257600560040160056003018481548110151561119357fe5b9060005260206000200160009054906101000a900473ffffffffffffffffffffffffffffffffffffffff1690806001815401808255809150509060018203906000526020600020016000909192909190916101000a81548173ffffffffffffffffffffffffffffffffffffffff021916908373ffffffffffffffffffffffffffffffffffffffff160217905550505b8080600101915050611152565b5050808060010191505061106e565b50611247611637565b60056004018054806020026020016040519081016040528092919081815260200182805480156112cc57602002820191906000526020600020905b8160009054906101000a900473ffffffffffffffffffffffffffffffffffffffff1673ffffffffffffffffffffffffffffffffffffffff1681526020019060010190808311611282575b5050505050905090565b600080600090505b600560030180549050811015611375578273ffffffffffffffffffffffffffffffffffffffff1660056003018281548110151561131757fe5b9060005260206000200160009054906101000a900473ffffffffffffffffffffffffffffffffffffffff1673ffffffffffffffffffffffffffffffffffffffff16141561136857600191505061137b565b80806001019150506112de565b50600090505b919050565b6000813b9050919050565b6000611395611734565b9050919050565b600060608390506000809050600080905060008090505b835181101561161857603084828151811015156113cc57fe5b9060200101517f010000000000000000000000000000000000000000000000000000000000000090047f0100000000000000000000000000000000000000000000000000000000000000027f0100000000000000000000000000000000000000000000000000000000000000900460ff16101580156114ca57506039848281518110151561145657fe5b9060200101517f010000000000000000000000000000000000000000000000000000000000000090047f0100000000000000000000000000000000000000000000000000000000000000027f0100000000000000000000000000000000000000000000000000000000000000900460ff1611155b1561157e5781156114ed5760008614156114e357611618565b8580600190039650505b600a830292506030848281518110151561150357fe5b9060200101517f010000000000000000000000000000000000000000000000000000000000000090047f0100000000000000000000000000000000000000000000000000000000000000027f0100000000000000000000000000000000000000000000000000000000000000900460ff16038301925061160b565b602e848281518110151561158e57fe5b9060200101517f010000000000000000000000000000000000000000000000000000000000000090047f0100000000000000000000000000000000000000000000000000000000000000027f0100000000000000000000000000000000000000000000000000000000000000900460ff16141561160a57600191505b5b80806001019150506113b3565b50600085111561162b5784600a0a820291505b81935050505092915050565b60006005600401805490503073ffffffffffffffffffffffffffffffffffffffff163181151561166357fe5b04905060008090505b60056004018054905081101561171257600060056004018281548110151561169057fe5b9060005260206000200160009054906101000a900473ffffffffffffffffffffffffffffffffffffffff1690508073ffffffffffffffffffffffffffffffffffffffff166108fc849081150290604051600060405180830381858888f19350505050158015611703573d6000803e3d6000fd5b5050808060010191505061166c565b506001600560070160026101000a81548160ff02191690831515021790555050565b600080611754731d3b2638a7cc9f2cb3d298a3da7a90b67e5506ed611380565b11156117f657731d3b2638a7cc9f2cb3d298a3da7a90b67e5506ed600160006101000a81548173ffffffffffffffffffffffffffffffffffffffff021916908373ffffffffffffffffffffffffffffffffffffffff1602179055506117ed6040805190810160405280600b81526020017f6574685f6d61696e6e6574000000000000000000000000000000000000000000815250611bca565b60019050611bc7565b600061181573c03a2615d5efaf5f49f60b7bb6583eaec212fdf1611380565b11156118b75773c03a2615d5efaf5f49f60b7bb6583eaec212fdf1600160006101000a81548173ffffffffffffffffffffffffffffffffffffffff021916908373ffffffffffffffffffffffffffffffffffffffff1602179055506118ae6040805190810160405280600c81526020017f6574685f726f707374656e330000000000000000000000000000000000000000815250611bca565b60019050611bc7565b60006118d673b7a07bcf2ba2f2703b24c0691b5278999c59ac7e611380565b11156119785773b7a07bcf2ba2f2703b24c0691b5278999c59ac7e600160006101000a81548173ffffffffffffffffffffffffffffffffffffffff021916908373ffffffffffffffffffffffffffffffffffffffff16021790555061196f6040805190810160405280600981526020017f6574685f6b6f76616e0000000000000000000000000000000000000000000000815250611bca565b60019050611bc7565b600061199773146500cfd35b22e4a392fe0adc06de1a1368ed48611380565b1115611a395773146500cfd35b22e4a392fe0adc06de1a1368ed48600160006101000a81548173ffffffffffffffffffffffffffffffffffffffff021916908373ffffffffffffffffffffffffffffffffffffffff160217905550611a306040805190810160405280600b81526020017f6574685f72696e6b656279000000000000000000000000000000000000000000815250611bca565b60019050611bc7565b6000611a58736f485c8bf6fc43ea212e93bbf8ce046c7f1cb475611380565b1115611abc57736f485c8bf6fc43ea212e93bbf8ce046c7f1cb475600160006101000a81548173ffffffffffffffffffffffffffffffffffffffff021916908373ffffffffffffffffffffffffffffffffffffffff16021790555060019050611bc7565b6000611adb7320e12a1f859b3feae5fb2a0a32c18f5a65555bbf611380565b1115611b3f577320e12a1f859b3feae5fb2a0a32c18f5a65555bbf600160006101000a81548173ffffffffffffffffffffffffffffffffffffffff021916908373ffffffffffffffffffffffffffffffffffffffff16021790555060019050611bc7565b6000611b5e7351efaf4c8b3c9afbd5ab9f4bbc82784ab6ef8faa611380565b1115611bc2577351efaf4c8b3c9afbd5ab9f4bbc82784ab6ef8faa600160006101000a81548173ffffffffffffffffffffffffffffffffffffffff021916908373ffffffffffffffffffffffffffffffffffffffff16021790555060019050611bc7565b600090505b90565b8060029080519060200190611be0929190611be4565b5050565b828054600181600116156101000203166002900490600052602060002090601f016020900481019282601f10611c2557805160ff1916838001178555611c53565b82800160010185558215611c53579182015b82811115611c52578251825591602001919060010190611c37565b5b509050611c609190611c64565b5090565b611c8691905b80821115611c82576000816000905550600101611c6a565b5090565b9056fea165627a7a72305820f4e98ba15e3d532df8205154a26306a4439bb6e9068da39016dd229d064e0fd60029",
  "source": "pragma solidity ^0.5.0;\r\n//TODO import oracles through oraclize\r\nimport \"./oraclizeAPI.sol\";\r\n\r\n\r\ninterface IWeatherBet {\r\n    function getValue() external;\r\n}\r\n\r\n//Our factory contract , this is deployed by us as developers.\r\ncontract BettingFactory {\r\n    address[] public bets;\r\n\r\n    function createWeatherBet(uint _value , uint _maxParticipators , bool _open , bool _friendsOnly , uint _betLength) public returns (address) {\r\n        address betAddress = address(new WeatherBet(msg.sender , _value , _maxParticipators , _open , _friendsOnly , _betLength));\r\n        bets.push(betAddress);\r\n        return betAddress;\r\n    }\r\n\r\n    function createRandomBet(uint _value , uint _maxParticipators , bool _open , bool _friendsOnly , uint _betLength) public returns (address){\r\n        address betAddress = address(new RandomNumberBet(msg.sender , _value , _maxParticipators , _open , _friendsOnly , _betLength));\r\n        bets.push(betAddress);\r\n        return betAddress;\r\n    }\r\n\r\n    function getOwnedBets(address ownerAddress) public view returns (address[] memory) {\r\n        address[] memory allBets = new address[](bets.length);\r\n        uint256 currentIndice = 0;\r\n        for (uint256 index = 0; index < bets.length; index++) {\r\n            WeatherBet bet = WeatherBet(bets[index]);\r\n            if (bet.getOwner() == ownerAddress) {\r\n                allBets[currentIndice] = address(bet);\r\n                currentIndice++;  \r\n            }\r\n        }\r\n        address[] memory ownedBets = new address[](currentIndice);\r\n        for(uint256 index = 0 ; index < currentIndice; index++){\r\n            ownedBets[index] = allBets[index]; \r\n        }\r\n        return ownedBets;\r\n    }\r\n}\r\n//abstract contract that is used by any specilized bet.\r\n//Force winners to be filled in before make get winners request.\r\ncontract Bet is usingOraclize {\r\n    struct BetStruct{\r\n        //time of creation of the bet\r\n        uint creationTime;\r\n        //betting length in days.\r\n        uint betLength;\r\n        address owner;\r\n        address[] participators;\r\n        address[]  winners;\r\n        uint betAmount;\r\n        uint maxParticipators;  \r\n        bool open;\r\n        bool friendsOnly;\r\n        bool finished;\r\n    }\r\n    BetStruct bet;\r\n\r\n    modifier onlyOwner {\r\n        require(\r\n            msg.sender == bet.owner,\r\n            \"Only owner can call this function.\"\r\n        );\r\n        _;\r\n    }\r\n\r\n    // modifier openToJoin {\r\n    //     require(bet.open == true , \"Bet is not open at the moment.\");\r\n    //     require(bet.finished == false , \"Bet has already finished\");\r\n    //     _;\r\n    // }\r\n\r\n    modifier betFinished{\r\n        require( bet.finished == true); \r\n        _;\r\n    }\r\n\r\n    modifier participating{\r\n        require( userAlreadyJoined(msg.sender) == true , \"You have to join this bet first.\");\r\n        _;\r\n    }\r\n    \r\n    //todo check if user is already in list....\r\n    function join() payable public {\r\n        require(msg.value == bet.betAmount * 1 ether  , \"Requires Ether.\");\r\n        require(bet.open == true);\r\n        require(userAlreadyJoined(msg.sender) == false);\r\n        bet.participators.push(msg.sender);\r\n    }\r\n\r\n    function userAlreadyJoined(address userAddress) private view returns (bool){\r\n        for (uint index = 0 ; index < bet.participators.length; index++) {\r\n            if(bet.participators[index] == userAddress) return true;\r\n        }\r\n        return false;\r\n    }\r\n\r\n    function isOpen() public onlyOwner view returns(bool){\r\n        return bet.open;\r\n    }\r\n\r\n    function friendsOnly() public view returns(bool){\r\n        return bet.friendsOnly;\r\n    }\r\n\r\n    function finished() public view returns(bool){\r\n        return bet.finished;\r\n    }\r\n\r\n    function getParticipators() public view returns  (address[] memory) {\r\n        return bet.participators;\r\n    }\r\n\r\n    function getBetAmount() public view returns (uint) {\r\n        return bet.betAmount;\r\n    }\r\n\r\n    function getOwner() public view returns (address) {\r\n        return bet.owner;\r\n    }\r\n\r\n    function getStoredBalance() public view returns (uint256) {\r\n        return address(this).balance;\r\n    }\r\n    \r\n    // function finishBet() public returns (address[] memory) {\r\n    //     address[] memory holder  = defineWinners();\r\n    //     bet.finished = true;\r\n    //     return holder;\r\n    // }\r\n    //Add modifier\r\n    function getWinners() public betFinished view returns(address[] memory) {\r\n        return bet.winners;\r\n    }\r\n\r\n    function getCreationTime() public view returns(uint){\r\n        return bet.creationTime; \r\n    }\r\n\r\n    //returns time left in seconds for bet to end\r\n    function timeLeft() public view returns(uint) {\r\n        return (bet.creationTime - now) / (bet.betLength * 1 minutes);\r\n    }\r\n    \r\n    /*ABSTRACT FUNCTIONS*/\r\n    //Functions that need to be implemented by inherited contracts.\r\n    function defineWinners() private returns (address[] memory);\r\n    function divideWinnings() private;\r\n}\r\n\r\ncontract WeatherBet is Bet {\r\n    //betlength in minutes\r\n    constructor(address _owner , uint _amount , uint _maxParticipators , bool _open , bool _friendsOnly , uint _betLength) public {\r\n        bet.creationTime = now;\r\n        bet.owner = _owner;\r\n        bet.betAmount = _amount;\r\n        bet.maxParticipators = _maxParticipators;\r\n        bet.open = _open;\r\n        bet.friendsOnly = _friendsOnly;\r\n        bet.finished = false;\r\n        bet.betLength = (1 minutes * _betLength);\r\n    }\r\n    //Everyone is a winner\r\n    function defineWinners() private returns (address[] memory) {\r\n        return bet.participators;\r\n    }\r\n    function divideWinnings() private{\r\n        \r\n    }\r\n    function getValue() public view returns(uint){\r\n        return 5;\r\n    }\r\n}\r\n\r\n//Defines special features this type of bet requires for interaction with the user.\r\ninterface IRandomNumberBet {\r\n    \r\n    //function createRandomNumber() external;\r\n    function guess(uint guessValue) external;\r\n}\r\n\r\n//Todo Add events for winners\r\ncontract RandomNumberBet is Bet , IRandomNumberBet {\r\n    //Todo , make private/local\r\n    uint256 private randomNumber;\r\n    mapping(address => uint[]) guesses;\r\n\r\n    constructor(address _owner , uint _amount , uint _maxParticipators , bool _open , bool _friendsOnly , uint _betLength) public  {\r\n        OAR = OraclizeAddrResolverI(0x6f485C8BF6fc43eA212E93BBF8ce046C7f1cb475);\r\n        require(_betLength > 0 && _maxParticipators <= 64 && _maxParticipators > 0);\r\n        bet.creationTime = now;\r\n        bet.owner = _owner;\r\n        bet.betAmount = _amount;\r\n        bet.maxParticipators = _maxParticipators;\r\n        bet.open = _open;\r\n        bet.friendsOnly = _friendsOnly;\r\n        bet.finished = false;\r\n        bet.betLength = (1 minutes * _betLength);\r\n        createRandomNumber();\r\n    }\r\n\r\n    event LogRandomNumber(string price);\r\n    \r\n    function __callback(bytes32 myid, string memory result) public {\r\n        if (msg.sender != oraclize_cbAddress()) revert();\r\n        randomNumber = parseInt(result);\r\n        //after the number has been decided , the winners will be decided.\r\n        //TODO???\r\n        defineWinners();\r\n        emit LogRandomNumber(result);\r\n    }\r\n\r\n    //Creates a random number by the use of a real world api through the query method.\r\n    //TODO, Create mutex so it can only be done once\r\n    function createRandomNumber() private {\r\n        //Query for the future , betlength = time in minutes after creation of the bet.\r\n        oraclize_query(bet.betLength,\"WolframAlpha\", \"random number between 1 and 10\");\r\n    }\r\n\r\n    //You cannot guess more than 3 times\r\n    function guess(uint guessValue) public participating {\r\n        require(guesses[msg.sender].length < 3 , \"Cannot guess more than 3 times\");\r\n        //require(userAlreadyJoined(msg.sender) == true);\r\n        guesses[msg.sender].push(guessValue);\r\n    }\r\n\r\n    //Defines the winners\r\n    function defineWinners() private returns (address[] memory){\r\n        //loop through participants\r\n        //use participants addresses to look up at in mapping\r\n        for(uint x = 0 ; x < bet.participators.length ; x++){\r\n            uint[] memory values = guesses[bet.participators[x]];\r\n            for(uint y = 0 ; y<values.length;y++){\r\n                if(values[y] == randomNumber){\r\n                    bet.winners.push(bet.participators[x]);\r\n                }\r\n            }\r\n        }\r\n        divideWinnings();\r\n        return bet.winners;\r\n    }\r\n\r\n    //Divide the balance among winners\r\n    function divideWinnings() private {\r\n        uint part = address(this).balance / bet.winners.length;\r\n        for(uint index = 0 ; index < bet.winners.length;index++){\r\n            //Casting address to payable address\r\n            address payable winner = address(uint160(bet.winners[index]));\r\n            winner.transfer(part);\r\n        }\r\n        //bet has finished\r\n        bet.finished = true;\r\n    }\r\n\r\n    //gets the winning number , TODO , hide it from public.\r\n    //Testing purposes only.\r\n    function getRandomNumber() public view returns(uint){\r\n        return randomNumber;\r\n    }\r\n}",
  "sourcePath": "C:/Users/Robin/Documents/GitHub/QuintorExperiment/contracts/Weather.sol",
  "compiler": {
    "name": "solc",
    "version": "0.5.0+commit.1d4f565a.Emscripten.clang"
  },
  "schemaVersion": "3.0.2",
  "updatedAt": "2019-03-14T17:18:02.180Z",
  "devdoc": {
    "methods": {}
  },
  "userdoc": {
    "methods": {}
  }
}