{
  "contractName": "RandomNumberBet",
  "abi": [
    {
      "constant": true,
      "inputs": [],
      "name": "timeLeft",
      "outputs": [
        {
          "name": "",
          "type": "uint256"
        }
      ],
      "payable": false,
      "stateMutability": "view",
      "type": "function"
    },
    {
      "constant": true,
      "inputs": [],
      "name": "getStoredBalance",
      "outputs": [
        {
          "name": "",
          "type": "uint256"
        }
      ],
      "payable": false,
      "stateMutability": "view",
      "type": "function"
    },
    {
      "constant": true,
      "inputs": [],
      "name": "betType",
      "outputs": [
        {
          "name": "",
          "type": "uint8"
        }
      ],
      "payable": false,
      "stateMutability": "view",
      "type": "function"
    },
    {
      "constant": true,
      "inputs": [],
      "name": "isOpen",
      "outputs": [
        {
          "name": "",
          "type": "bool"
        }
      ],
      "payable": false,
      "stateMutability": "view",
      "type": "function"
    },
    {
      "constant": true,
      "inputs": [],
      "name": "getOwner",
      "outputs": [
        {
          "name": "",
          "type": "address"
        }
      ],
      "payable": false,
      "stateMutability": "view",
      "type": "function"
    },
    {
      "constant": true,
      "inputs": [],
      "name": "friendsOnly",
      "outputs": [
        {
          "name": "",
          "type": "bool"
        }
      ],
      "payable": false,
      "stateMutability": "view",
      "type": "function"
    },
    {
      "constant": true,
      "inputs": [],
      "name": "checkJoined",
      "outputs": [
        {
          "name": "",
          "type": "bool"
        }
      ],
      "payable": false,
      "stateMutability": "view",
      "type": "function"
    },
    {
      "constant": false,
      "inputs": [],
      "name": "join",
      "outputs": [],
      "payable": true,
      "stateMutability": "payable",
      "type": "function"
    },
    {
      "constant": true,
      "inputs": [],
      "name": "finished",
      "outputs": [
        {
          "name": "",
          "type": "bool"
        }
      ],
      "payable": false,
      "stateMutability": "view",
      "type": "function"
    },
    {
      "constant": true,
      "inputs": [],
      "name": "getWinners",
      "outputs": [
        {
          "name": "",
          "type": "address[]"
        }
      ],
      "payable": false,
      "stateMutability": "view",
      "type": "function"
    },
    {
      "constant": true,
      "inputs": [],
      "name": "getCreationTime",
      "outputs": [
        {
          "name": "",
          "type": "uint256"
        }
      ],
      "payable": false,
      "stateMutability": "view",
      "type": "function"
    },
    {
      "constant": true,
      "inputs": [],
      "name": "getParticipators",
      "outputs": [
        {
          "name": "",
          "type": "address[]"
        }
      ],
      "payable": false,
      "stateMutability": "view",
      "type": "function"
    },
    {
      "constant": true,
      "inputs": [],
      "name": "getBetAmount",
      "outputs": [
        {
          "name": "",
          "type": "uint256"
        }
      ],
      "payable": false,
      "stateMutability": "view",
      "type": "function"
    },
    {
      "inputs": [
        {
          "name": "_owner",
          "type": "address"
        },
        {
          "name": "_amount",
          "type": "uint256"
        },
        {
          "name": "_maxParticipators",
          "type": "uint256"
        },
        {
          "name": "_open",
          "type": "bool"
        },
        {
          "name": "_friendsOnly",
          "type": "bool"
        },
        {
          "name": "_betLength",
          "type": "uint256"
        }
      ],
      "payable": false,
      "stateMutability": "nonpayable",
      "type": "constructor"
    },
    {
      "anonymous": false,
      "inputs": [
        {
          "indexed": false,
          "name": "price",
          "type": "string"
        }
      ],
      "name": "LogRandomNumber",
      "type": "event"
    },
    {
      "constant": false,
      "inputs": [
        {
          "name": "myid",
          "type": "bytes32"
        },
        {
          "name": "result",
          "type": "string"
        }
      ],
      "name": "__callback",
      "outputs": [],
      "payable": false,
      "stateMutability": "nonpayable",
      "type": "function"
    },
    {
      "constant": false,
      "inputs": [
        {
          "name": "_myid",
          "type": "bytes32"
        },
        {
          "name": "_result",
          "type": "string"
        },
        {
          "name": "_proof",
          "type": "bytes"
        }
      ],
      "name": "__callback",
      "outputs": [],
      "payable": false,
      "stateMutability": "nonpayable",
      "type": "function"
    },
    {
      "constant": false,
      "inputs": [
        {
          "name": "guessValue",
          "type": "uint256"
        }
      ],
      "name": "guess",
      "outputs": [],
      "payable": false,
      "stateMutability": "nonpayable",
      "type": "function"
    },
    {
      "constant": true,
      "inputs": [],
      "name": "guessesLeft",
      "outputs": [
        {
          "name": "",
          "type": "uint256"
        }
      ],
      "payable": false,
      "stateMutability": "view",
      "type": "function"
    },
    {
      "constant": true,
      "inputs": [],
      "name": "getRandomNumber",
      "outputs": [
        {
          "name": "",
          "type": "uint256"
        }
      ],
      "payable": false,
      "stateMutability": "view",
      "type": "function"
    }
  ],
  "bytecode": "0x60806040523480156200001157600080fd5b5060405160c080620029dd833981018060405260c08110156200003357600080fd5b81019080805190602001909291908051906020019092919080519060200190929190805190602001909291908051906020019092919080519060200190929190505050738443a77a530df747e77b913b77c81a98508da8ec600160006101000a81548173ffffffffffffffffffffffffffffffffffffffff021916908373ffffffffffffffffffffffffffffffffffffffff160217905550600081118015620000dd575060408411155b8015620000ea5750600084115b1515620000f657600080fd5b4260056000018190555085600560020160006101000a81548173ffffffffffffffffffffffffffffffffffffffff021916908373ffffffffffffffffffffffffffffffffffffffff1602179055508460058001819055508360056006018190555082600560070160006101000a81548160ff02191690831515021790555081600560070160016101000a81548160ff0219169083151502179055506000600560070160026101000a81548160ff02191690831515021790555080603c026005600101819055506000600d60006101000a81548160ff02191690836001811115620001dc57fe5b02179055506003600e81905550620002026200020e640100000000026401000000009004565b50505050505062000ee8565b620002996005600101546040805190810160405280600c81526020017f576f6c6672616d416c70686100000000000000000000000000000000000000008152506040805190810160405280601e81526020017f72616e646f6d206e756d626572206265747765656e203120616e6420313000008152506200029c640100000000026401000000009004565b50565b60008073ffffffffffffffffffffffffffffffffffffffff16600160009054906101000a900473ffffffffffffffffffffffffffffffffffffffff1673ffffffffffffffffffffffffffffffffffffffff161480620003365750600062000334600160009054906101000a900473ffffffffffffffffffffffffffffffffffffffff1662000891640100000000026401000000009004565b145b1562000359576200035760006200089c640100000000026401000000009004565b505b600160009054906101000a900473ffffffffffffffffffffffffffffffffffffffff1673ffffffffffffffffffffffffffffffffffffffff166338cc48316040518163ffffffff167c0100000000000000000000000000000000000000000000000000000000028152600401602060405180830381600087803b158015620003e057600080fd5b505af1158015620003f5573d6000803e3d6000fd5b505050506040513d60208110156200040c57600080fd5b810190808051906020019092919050505073ffffffffffffffffffffffffffffffffffffffff166000809054906101000a900473ffffffffffffffffffffffffffffffffffffffff1673ffffffffffffffffffffffffffffffffffffffff161415156200057757600160009054906101000a900473ffffffffffffffffffffffffffffffffffffffff1673ffffffffffffffffffffffffffffffffffffffff166338cc48316040518163ffffffff167c0100000000000000000000000000000000000000000000000000000000028152600401602060405180830381600087803b158015620004fa57600080fd5b505af11580156200050f573d6000803e3d6000fd5b505050506040513d60208110156200052657600080fd5b81019080805190602001909291905050506000806101000a81548173ffffffffffffffffffffffffffffffffffffffff021916908373ffffffffffffffffffffffffffffffffffffffff1602179055505b60008060009054906101000a900473ffffffffffffffffffffffffffffffffffffffff1673ffffffffffffffffffffffffffffffffffffffff1663524f3889856040518263ffffffff167c01000000000000000000000000000000000000000000000000000000000281526004018080602001828103825283818151815260200191508051906020019080838360005b838110156200062457808201518184015260208101905062000607565b50505050905090810190601f168015620006525780820380516001836020036101000a031916815260200191505b5092505050602060405180830381600087803b1580156200067257600080fd5b505af115801562000687573d6000803e3d6000fd5b505050506040513d60208110156200069e57600080fd5b8101908080519060200190929190505050905062030d403a02670de0b6b3a764000001811115620006d75760006001029150506200088a565b6000809054906101000a900473ffffffffffffffffffffffffffffffffffffffff1673ffffffffffffffffffffffffffffffffffffffff1663adf59f99828787876040518563ffffffff167c0100000000000000000000000000000000000000000000000000000000028152600401808481526020018060200180602001838103835285818151815260200191508051906020019080838360005b838110156200078f57808201518184015260208101905062000772565b50505050905090810190601f168015620007bd5780820380516001836020036101000a031916815260200191505b50838103825284818151815260200191508051906020019080838360005b83811015620007f8578082015181840152602081019050620007db565b50505050905090810190601f168015620008265780820380516001836020036101000a031916815260200191505b50955050505050506020604051808303818588803b1580156200084857600080fd5b505af11580156200085d573d6000803e3d6000fd5b50505050506040513d60208110156200087557600080fd5b81019080805190602001909291905050509150505b9392505050565b6000813b9050919050565b6000620008b7620008be640100000000026401000000009004565b9050919050565b600080620008ef731d3b2638a7cc9f2cb3d298a3da7a90b67e5506ed62000891640100000000026401000000009004565b1115620009a457731d3b2638a7cc9f2cb3d298a3da7a90b67e5506ed600160006101000a81548173ffffffffffffffffffffffffffffffffffffffff021916908373ffffffffffffffffffffffffffffffffffffffff1602179055506200099a6040805190810160405280600b81526020017f6574685f6d61696e6e657400000000000000000000000000000000000000000081525062000e1d640100000000026401000000009004565b6001905062000e1a565b6000620009d473c03a2615d5efaf5f49f60b7bb6583eaec212fdf162000891640100000000026401000000009004565b111562000a895773c03a2615d5efaf5f49f60b7bb6583eaec212fdf1600160006101000a81548173ffffffffffffffffffffffffffffffffffffffff021916908373ffffffffffffffffffffffffffffffffffffffff16021790555062000a7f6040805190810160405280600c81526020017f6574685f726f707374656e33000000000000000000000000000000000000000081525062000e1d640100000000026401000000009004565b6001905062000e1a565b600062000ab973b7a07bcf2ba2f2703b24c0691b5278999c59ac7e62000891640100000000026401000000009004565b111562000b6e5773b7a07bcf2ba2f2703b24c0691b5278999c59ac7e600160006101000a81548173ffffffffffffffffffffffffffffffffffffffff021916908373ffffffffffffffffffffffffffffffffffffffff16021790555062000b646040805190810160405280600981526020017f6574685f6b6f76616e000000000000000000000000000000000000000000000081525062000e1d640100000000026401000000009004565b6001905062000e1a565b600062000b9e73146500cfd35b22e4a392fe0adc06de1a1368ed4862000891640100000000026401000000009004565b111562000c535773146500cfd35b22e4a392fe0adc06de1a1368ed48600160006101000a81548173ffffffffffffffffffffffffffffffffffffffff021916908373ffffffffffffffffffffffffffffffffffffffff16021790555062000c496040805190810160405280600b81526020017f6574685f72696e6b65627900000000000000000000000000000000000000000081525062000e1d640100000000026401000000009004565b6001905062000e1a565b600062000c83736f485c8bf6fc43ea212e93bbf8ce046c7f1cb47562000891640100000000026401000000009004565b111562000ce957736f485c8bf6fc43ea212e93bbf8ce046c7f1cb475600160006101000a81548173ffffffffffffffffffffffffffffffffffffffff021916908373ffffffffffffffffffffffffffffffffffffffff1602179055506001905062000e1a565b600062000d197320e12a1f859b3feae5fb2a0a32c18f5a65555bbf62000891640100000000026401000000009004565b111562000d7f577320e12a1f859b3feae5fb2a0a32c18f5a65555bbf600160006101000a81548173ffffffffffffffffffffffffffffffffffffffff021916908373ffffffffffffffffffffffffffffffffffffffff1602179055506001905062000e1a565b600062000daf7351efaf4c8b3c9afbd5ab9f4bbc82784ab6ef8faa62000891640100000000026401000000009004565b111562000e15577351efaf4c8b3c9afbd5ab9f4bbc82784ab6ef8faa600160006101000a81548173ffffffffffffffffffffffffffffffffffffffff021916908373ffffffffffffffffffffffffffffffffffffffff1602179055506001905062000e1a565b600090505b90565b806002908051906020019062000e3592919062000e39565b5050565b828054600181600116156101000203166002900490600052602060002090601f016020900481019282601f1062000e7c57805160ff191683800117855562000ead565b8280016001018555821562000ead579182015b8281111562000eac57825182559160200191906001019062000e8f565b5b50905062000ebc919062000ec0565b5090565b62000ee591905b8082111562000ee157600081600090555060010162000ec7565b5090565b90565b611ae58062000ef86000396000f3fe6080604052600436106100fc576000357c0100000000000000000000000000000000000000000000000000000000900463ffffffff1680631300a6d1146101015780631e6be9111461012c57806326c433841461015757806327dc297e1461019057806338bbfa501461026257806347535d7b146103cb578063893d20e8146103fa57806389b5af53146104515780639189fec1146104805780639d26c6f2146104bb578063b688a363146104ea578063bef4876b146104f4578063d4a5bad414610523578063dbdff2c11461054e578063df15c37e14610579578063e6519a35146105e5578063f8a0b69514610610578063fde41e291461067c575b600080fd5b34801561010d57600080fd5b506101166106a7565b6040518082815260200191505060405180910390f35b34801561013857600080fd5b506101416106c9565b6040518082815260200191505060405180910390f35b34801561016357600080fd5b5061016c6106e8565b6040518082600181111561017c57fe5b60ff16815260200191505060405180910390f35b34801561019c57600080fd5b50610260600480360360408110156101b357600080fd5b8101908080359060200190929190803590602001906401000000008111156101da57600080fd5b8201836020820111156101ec57600080fd5b8035906020019184600183028401116401000000008311171561020e57600080fd5b91908080601f016020809104026020016040519081016040528093929190818152602001838380828437600081840152601f19601f8201169050808301925050505050505091929192905050506106fb565b005b34801561026e57600080fd5b506103c96004803603606081101561028557600080fd5b8101908080359060200190929190803590602001906401000000008111156102ac57600080fd5b8201836020820111156102be57600080fd5b803590602001918460018302840111640100000000831117156102e057600080fd5b91908080601f016020809104026020016040519081016040528093929190818152602001838380828437600081840152601f19601f8201169050808301925050505050505091929192908035906020019064010000000081111561034357600080fd5b82018360208201111561035557600080fd5b8035906020019184600183028401116401000000008311171561037757600080fd5b91908080601f016020809104026020016040519081016040528093929190818152602001838380828437600081840152601f19601f8201169050808301925050505050505091929192905050506107eb565b005b3480156103d757600080fd5b506103e06107f0565b604051808215151515815260200191505060405180910390f35b34801561040657600080fd5b5061040f61080a565b604051808273ffffffffffffffffffffffffffffffffffffffff1673ffffffffffffffffffffffffffffffffffffffff16815260200191505060405180910390f35b34801561045d57600080fd5b50610466610837565b604051808215151515815260200191505060405180910390f35b34801561048c57600080fd5b506104b9600480360360208110156104a357600080fd5b810190808035906020019092919050505061093f565b005b3480156104c757600080fd5b506104d0610aea565b604051808215151515815260200191505060405180910390f35b6104f2610afa565b005b34801561050057600080fd5b50610509610c2a565b604051808215151515815260200191505060405180910390f35b34801561052f57600080fd5b50610538610c44565b6040518082815260200191505060405180910390f35b34801561055a57600080fd5b50610563610d12565b6040518082815260200191505060405180910390f35b34801561058557600080fd5b5061058e610d1c565b6040518080602001828103825283818151815260200191508051906020019060200280838360005b838110156105d15780820151818401526020810190506105b6565b505050509050019250505060405180910390f35b3480156105f157600080fd5b506105fa610dd2565b6040518082815260200191505060405180910390f35b34801561061c57600080fd5b50610625610ddf565b6040518080602001828103825283818151815260200191508051906020019060200280838360005b8381101561066857808201518184015260208101905061064d565b505050509050019250505060405180910390f35b34801561068857600080fd5b50610691610e70565b6040518082815260200191505060405180910390f35b6000603c6005600101540242600560000154038115156106c357fe5b04905090565b60003073ffffffffffffffffffffffffffffffffffffffff1631905090565b600d60009054906101000a900460ff1681565b610703610e7c565b73ffffffffffffffffffffffffffffffffffffffff163373ffffffffffffffffffffffffffffffffffffffff1614151561073c57600080fd5b610745816111ef565b600f819055507f1c5c3711df5aac2dea21605b5be8641fe1726565c3642e3a502f0e05156d1686816040518080602001828103825283818151815260200191508051906020019080838360005b838110156107ad578082015181840152602081019050610792565b50505050905090810190601f1680156107da5780820380516001836020036101000a031916815260200191505b509250505060405180910390a15050565b505050565b6000600560070160009054906101000a900460ff16905090565b6000600560020160009054906101000a900473ffffffffffffffffffffffffffffffffffffffff16905090565b6000600560020160009054906101000a900473ffffffffffffffffffffffffffffffffffffffff1673ffffffffffffffffffffffffffffffffffffffff163373ffffffffffffffffffffffffffffffffffffffff16141515610927576040517f08c379a00000000000000000000000000000000000000000000000000000000081526004018080602001828103825260228152602001807f4f6e6c79206f776e65722063616e2063616c6c20746869732066756e6374696f81526020017f6e2e00000000000000000000000000000000000000000000000000000000000081525060400191505060405180910390fd5b600560070160019054906101000a900460ff16905090565b6001151561094c33611203565b15151415156109c3576040517f08c379a00000000000000000000000000000000000000000000000000000000081526004018080602001828103825260208152602001807f596f75206861766520746f206a6f696e2074686973206265742066697273742e81525060200191505060405180910390fd5b600e54601060003373ffffffffffffffffffffffffffffffffffffffff1673ffffffffffffffffffffffffffffffffffffffff16815260200190815260200160002080549050101515610a7e576040517f08c379a000000000000000000000000000000000000000000000000000000000815260040180806020018281038252601e8152602001807f43616e6e6f74206775657373206d6f7265207468616e20332074696d6573000081525060200191505060405180910390fd5b601060003373ffffffffffffffffffffffffffffffffffffffff1673ffffffffffffffffffffffffffffffffffffffff16815260200190815260200160002081908060018154018082558091505090600182039060005260206000200160009091929091909150555050565b6000610af533611203565b905090565b670de0b6b3a764000060058001540234141515610b7f576040517f08c379a000000000000000000000000000000000000000000000000000000000815260040180806020018281038252600f8152602001807f52657175697265732045746865722e000000000000000000000000000000000081525060200191505060405180910390fd5b60011515600560070160009054906101000a900460ff161515141515610ba457600080fd5b60001515610bb133611203565b1515141515610bbf57600080fd5b60056003013390806001815401808255809150509060018203906000526020600020016000909192909190916101000a81548173ffffffffffffffffffffffffffffffffffffffff021916908373ffffffffffffffffffffffffffffffffffffffff16021790555050565b6000600560070160029054906101000a900460ff16905090565b600060011515610c5333611203565b1515141515610cca576040517f08c379a00000000000000000000000000000000000000000000000000000000081526004018080602001828103825260208152602001807f596f75206861766520746f206a6f696e2074686973206265742066697273742e81525060200191505060405180910390fd5b601060003373ffffffffffffffffffffffffffffffffffffffff1673ffffffffffffffffffffffffffffffffffffffff16815260200190815260200160002080549050905090565b6000600f54905090565b606060011515600560070160029054906101000a900460ff161515141515610d4357600080fd5b6005600401805480602002602001604051908101604052809291908181526020018280548015610dc857602002820191906000526020600020905b8160009054906101000a900473ffffffffffffffffffffffffffffffffffffffff1673ffffffffffffffffffffffffffffffffffffffff1681526020019060010190808311610d7e575b5050505050905090565b6000600560000154905090565b60606005600301805480602002602001604051908101604052809291908181526020018280548015610e6657602002820191906000526020600020905b8160009054906101000a900473ffffffffffffffffffffffffffffffffffffffff1673ffffffffffffffffffffffffffffffffffffffff1681526020019060010190808311610e1c575b5050505050905090565b60006005800154905090565b60008073ffffffffffffffffffffffffffffffffffffffff16600160009054906101000a900473ffffffffffffffffffffffffffffffffffffffff1673ffffffffffffffffffffffffffffffffffffffff161480610f0457506000610f02600160009054906101000a900473ffffffffffffffffffffffffffffffffffffffff166112ad565b145b15610f1557610f1360006112b8565b505b600160009054906101000a900473ffffffffffffffffffffffffffffffffffffffff1673ffffffffffffffffffffffffffffffffffffffff166338cc48316040518163ffffffff167c0100000000000000000000000000000000000000000000000000000000028152600401602060405180830381600087803b158015610f9b57600080fd5b505af1158015610faf573d6000803e3d6000fd5b505050506040513d6020811015610fc557600080fd5b810190808051906020019092919050505073ffffffffffffffffffffffffffffffffffffffff166000809054906101000a900473ffffffffffffffffffffffffffffffffffffffff1673ffffffffffffffffffffffffffffffffffffffff1614151561112c57600160009054906101000a900473ffffffffffffffffffffffffffffffffffffffff1673ffffffffffffffffffffffffffffffffffffffff166338cc48316040518163ffffffff167c0100000000000000000000000000000000000000000000000000000000028152600401602060405180830381600087803b1580156110b157600080fd5b505af11580156110c5573d6000803e3d6000fd5b505050506040513d60208110156110db57600080fd5b81019080805190602001909291905050506000806101000a81548173ffffffffffffffffffffffffffffffffffffffff021916908373ffffffffffffffffffffffffffffffffffffffff1602179055505b6000809054906101000a900473ffffffffffffffffffffffffffffffffffffffff1673ffffffffffffffffffffffffffffffffffffffff1663c281d19e6040518163ffffffff167c010000000000000000000000000000000000000000000000000000000002815260040160206040518083038186803b1580156111af57600080fd5b505afa1580156111c3573d6000803e3d6000fd5b505050506040513d60208110156111d957600080fd5b8101908080519060200190929190505050905090565b60006111fc8260006112c9565b9050919050565b600080600090505b6005600301805490508110156112a2578273ffffffffffffffffffffffffffffffffffffffff1660056003018281548110151561124457fe5b9060005260206000200160009054906101000a900473ffffffffffffffffffffffffffffffffffffffff1673ffffffffffffffffffffffffffffffffffffffff1614156112955760019150506112a8565b808060010191505061120b565b50600090505b919050565b6000813b9050919050565b60006112c2611564565b9050919050565b600060608390506000809050600080905060008090505b835181101561154557603084828151811015156112f957fe5b9060200101517f010000000000000000000000000000000000000000000000000000000000000090047f0100000000000000000000000000000000000000000000000000000000000000027f0100000000000000000000000000000000000000000000000000000000000000900460ff16101580156113f757506039848281518110151561138357fe5b9060200101517f010000000000000000000000000000000000000000000000000000000000000090047f0100000000000000000000000000000000000000000000000000000000000000027f0100000000000000000000000000000000000000000000000000000000000000900460ff1611155b156114ab57811561141a57600086141561141057611545565b8580600190039650505b600a830292506030848281518110151561143057fe5b9060200101517f010000000000000000000000000000000000000000000000000000000000000090047f0100000000000000000000000000000000000000000000000000000000000000027f0100000000000000000000000000000000000000000000000000000000000000900460ff160383019250611538565b602e84828151811015156114bb57fe5b9060200101517f010000000000000000000000000000000000000000000000000000000000000090047f0100000000000000000000000000000000000000000000000000000000000000027f0100000000000000000000000000000000000000000000000000000000000000900460ff16141561153757600191505b5b80806001019150506112e0565b5060008511156115585784600a0a820291505b81935050505092915050565b600080611584731d3b2638a7cc9f2cb3d298a3da7a90b67e5506ed6112ad565b111561162657731d3b2638a7cc9f2cb3d298a3da7a90b67e5506ed600160006101000a81548173ffffffffffffffffffffffffffffffffffffffff021916908373ffffffffffffffffffffffffffffffffffffffff16021790555061161d6040805190810160405280600b81526020017f6574685f6d61696e6e65740000000000000000000000000000000000000000008152506119fa565b600190506119f7565b600061164573c03a2615d5efaf5f49f60b7bb6583eaec212fdf16112ad565b11156116e75773c03a2615d5efaf5f49f60b7bb6583eaec212fdf1600160006101000a81548173ffffffffffffffffffffffffffffffffffffffff021916908373ffffffffffffffffffffffffffffffffffffffff1602179055506116de6040805190810160405280600c81526020017f6574685f726f707374656e3300000000000000000000000000000000000000008152506119fa565b600190506119f7565b600061170673b7a07bcf2ba2f2703b24c0691b5278999c59ac7e6112ad565b11156117a85773b7a07bcf2ba2f2703b24c0691b5278999c59ac7e600160006101000a81548173ffffffffffffffffffffffffffffffffffffffff021916908373ffffffffffffffffffffffffffffffffffffffff16021790555061179f6040805190810160405280600981526020017f6574685f6b6f76616e00000000000000000000000000000000000000000000008152506119fa565b600190506119f7565b60006117c773146500cfd35b22e4a392fe0adc06de1a1368ed486112ad565b11156118695773146500cfd35b22e4a392fe0adc06de1a1368ed48600160006101000a81548173ffffffffffffffffffffffffffffffffffffffff021916908373ffffffffffffffffffffffffffffffffffffffff1602179055506118606040805190810160405280600b81526020017f6574685f72696e6b6562790000000000000000000000000000000000000000008152506119fa565b600190506119f7565b6000611888736f485c8bf6fc43ea212e93bbf8ce046c7f1cb4756112ad565b11156118ec57736f485c8bf6fc43ea212e93bbf8ce046c7f1cb475600160006101000a81548173ffffffffffffffffffffffffffffffffffffffff021916908373ffffffffffffffffffffffffffffffffffffffff160217905550600190506119f7565b600061190b7320e12a1f859b3feae5fb2a0a32c18f5a65555bbf6112ad565b111561196f577320e12a1f859b3feae5fb2a0a32c18f5a65555bbf600160006101000a81548173ffffffffffffffffffffffffffffffffffffffff021916908373ffffffffffffffffffffffffffffffffffffffff160217905550600190506119f7565b600061198e7351efaf4c8b3c9afbd5ab9f4bbc82784ab6ef8faa6112ad565b11156119f2577351efaf4c8b3c9afbd5ab9f4bbc82784ab6ef8faa600160006101000a81548173ffffffffffffffffffffffffffffffffffffffff021916908373ffffffffffffffffffffffffffffffffffffffff160217905550600190506119f7565b600090505b90565b8060029080519060200190611a10929190611a14565b5050565b828054600181600116156101000203166002900490600052602060002090601f016020900481019282601f10611a5557805160ff1916838001178555611a83565b82800160010185558215611a83579182015b82811115611a82578251825591602001919060010190611a67565b5b509050611a909190611a94565b5090565b611ab691905b80821115611ab2576000816000905550600101611a9a565b5090565b9056fea165627a7a7230582095ee0f0b52cbea5398bff0c524647c5f8ed4dab55febced5a1a1f6ed738a312d0029",
  "source": "pragma solidity ^0.5.0;\r\n\r\nimport \"./oraclizeAPI.sol\";\r\nimport \"./Bet.sol\";\r\nimport \"./IRandomNumberBet.sol\";\r\n\r\n//Todo Add events for winners\r\ncontract RandomNumberBet is Bet , IRandomNumberBet {\r\n    uint amountOfGuesses;\r\n    uint256 private randomNumber;\r\n    mapping(address => uint[]) guesses;\r\n\r\n    constructor(address _owner , uint _amount , uint _maxParticipators , bool _open , bool _friendsOnly , uint _betLength) public  {\r\n        OAR = OraclizeAddrResolverI(0x8443A77A530dF747e77B913B77c81A98508Da8EC);\r\n        require(_betLength > 0 && _maxParticipators <= 64 && _maxParticipators > 0);\r\n        bet.creationTime = now;\r\n        bet.owner = _owner;\r\n        bet.betAmount = _amount;\r\n        bet.maxParticipators = _maxParticipators;\r\n        bet.open = _open;\r\n        bet.friendsOnly = _friendsOnly;\r\n        bet.finished = false;\r\n        bet.betLength = (1 minutes * _betLength);\r\n        betType = BetType.RandomNumberBet;\r\n        amountOfGuesses = 3;\r\n        getWinningNumber();\r\n    }\r\n\r\n    event LogRandomNumber(string price);\r\n    \r\n    //Function that is called after completion of the Oraclize query.\r\n    function __callback(bytes32 myid, string memory result) public {\r\n        if (msg.sender != oraclize_cbAddress()) revert();\r\n        randomNumber = parseInt(result);\r\n        //after the number has been decided , the winners will be decided.\r\n        //TODO???\r\n        //defineWinners();\r\n        emit LogRandomNumber(result);\r\n    }\r\n\r\n    //Creates a random number by the use of a real world api through the query method.\r\n    //TODO, Create mutex so it can only be done once\r\n    function getWinningNumber() private  {\r\n        //Query for the future , betlength = time in seconds after creation of the bet.\r\n        oraclize_query(bet.betLength,\"WolframAlpha\", \"random number between 1 and 10\");\r\n    }\r\n\r\n    //Defines the winners\r\n    function defineWinners() private returns (address[] memory){\r\n        //loop through participants\r\n        //use participants addresses to look up at in mapping\r\n        for(uint x = 0 ; x < bet.participators.length ; x++){\r\n            uint[] memory values = guesses[bet.participators[x]];\r\n            for(uint y = 0 ; y<values.length;y++){\r\n                if(values[y] == randomNumber){\r\n                    bet.winners.push(bet.participators[x]);\r\n                }\r\n            }\r\n        }\r\n        divideWinnings();\r\n        return bet.winners;\r\n    }\r\n\r\n    //Divide the balance among winners\r\n    //TODO: If no winners, divide bet balance over all paricipants.\r\n    function divideWinnings() private {\r\n        uint part = address(this).balance / bet.winners.length;\r\n        for(uint index = 0 ; index < bet.winners.length;index++){\r\n            //Casting address to payable address\r\n            address payable winner = address(uint160(bet.winners[index]));\r\n            winner.transfer(part);\r\n        }\r\n        //bet has finished\r\n        bet.finished = true;\r\n    }\r\n\r\n    //You cannot guess more than X times\r\n    function guess(uint guessValue) public participating {\r\n        require(guesses[msg.sender].length < amountOfGuesses , \"Cannot guess more than 3 times\");\r\n        //require(userAlreadyJoined(msg.sender) == true);\r\n        guesses[msg.sender].push(guessValue);\r\n    }\r\n\r\n    //Returns number of guesses left for this bet.\r\n    function guessesLeft() public participating view returns(uint) {\r\n        return guesses[msg.sender].length;\r\n    }\r\n\r\n    //gets the winning number , TODO , hide it from public.\r\n    //Testing purposes only.\r\n    function getRandomNumber() public view returns(uint){\r\n        return randomNumber;\r\n    }\r\n}",
  "sourcePath": "C:\\Users\\Robin\\Documents\\GitHub\\QuintorExperiment\\contracts\\RandomNumberBet.sol",
  "compiler": {
    "name": "solc",
    "version": "0.5.0+commit.1d4f565a.Emscripten.clang"
  },
  "schemaVersion": "3.0.2",
  "updatedAt": "2019-03-17T18:51:56.606Z",
  "devdoc": {
    "methods": {}
  },
  "userdoc": {
    "methods": {}
  }
}