{
  "contractName": "WeatherFactory",
  "abi": [
    {
      "constant": true,
      "inputs": [
        {
          "name": "",
          "type": "uint256"
        }
      ],
      "name": "bets",
      "outputs": [
        {
          "name": "",
          "type": "address"
        }
      ],
      "payable": false,
      "stateMutability": "view",
      "type": "function",
      "signature": "0x22af00fa"
    },
    {
      "constant": false,
      "inputs": [
        {
          "name": "_value",
          "type": "uint256"
        },
        {
          "name": "_maxParticipators",
          "type": "uint256"
        },
        {
          "name": "_open",
          "type": "bool"
        },
        {
          "name": "_friendsOnly",
          "type": "bool"
        }
      ],
      "name": "createWeatherBet",
      "outputs": [
        {
          "name": "",
          "type": "address"
        }
      ],
      "payable": false,
      "stateMutability": "nonpayable",
      "type": "function",
      "signature": "0x4b4be483"
    },
    {
      "constant": true,
      "inputs": [
        {
          "name": "ownerAddress",
          "type": "address"
        }
      ],
      "name": "getOwnedBets",
      "outputs": [
        {
          "name": "",
          "type": "address[]"
        }
      ],
      "payable": false,
      "stateMutability": "view",
      "type": "function",
      "signature": "0xffc3dd29"
    }
  ],
  "bytecode": "0x608060405234801561001057600080fd5b50610e58806100206000396000f3fe608060405260043610610057576000357c0100000000000000000000000000000000000000000000000000000000900463ffffffff16806322af00fa1461005c5780634b4be483146100d7578063ffc3dd2914610174575b600080fd5b34801561006857600080fd5b506100956004803603602081101561007f57600080fd5b810190808035906020019092919050505061021a565b604051808273ffffffffffffffffffffffffffffffffffffffff1673ffffffffffffffffffffffffffffffffffffffff16815260200191505060405180910390f35b3480156100e357600080fd5b50610132600480360360808110156100fa57600080fd5b810190808035906020019092919080359060200190929190803515159060200190929190803515159060200190929190505050610258565b604051808273ffffffffffffffffffffffffffffffffffffffff1673ffffffffffffffffffffffffffffffffffffffff16815260200191505060405180910390f35b34801561018057600080fd5b506101c36004803603602081101561019757600080fd5b81019080803573ffffffffffffffffffffffffffffffffffffffff169060200190929190505050610353565b6040518080602001828103825283818151815260200191508051906020019060200280838360005b838110156102065780820151818401526020810190506101eb565b505050509050019250505060405180910390f35b60008181548110151561022957fe5b906000526020600020016000915054906101000a900473ffffffffffffffffffffffffffffffffffffffff1681565b60008033868686866102686105d2565b808673ffffffffffffffffffffffffffffffffffffffff1673ffffffffffffffffffffffffffffffffffffffff168152602001858152602001848152602001831515151581526020018215151515815260200195505050505050604051809103906000f0801580156102de573d6000803e3d6000fd5b50905060008190806001815401808255809150509060018203906000526020600020016000909192909190916101000a81548173ffffffffffffffffffffffffffffffffffffffff021916908373ffffffffffffffffffffffffffffffffffffffff1602179055505080915050949350505050565b60608060008054905060405190808252806020026020018201604052801561038a5781602001602082028038833980820191505090505b509050600080905060008090505b60008054905081101561051457600080828154811015156103b557fe5b9060005260206000200160009054906101000a900473ffffffffffffffffffffffffffffffffffffffff1690508573ffffffffffffffffffffffffffffffffffffffff168173ffffffffffffffffffffffffffffffffffffffff1663893d20e86040518163ffffffff167c010000000000000000000000000000000000000000000000000000000002815260040160206040518083038186803b15801561045b57600080fd5b505afa15801561046f573d6000803e3d6000fd5b505050506040513d602081101561048557600080fd5b810190808051906020019092919050505073ffffffffffffffffffffffffffffffffffffffff161415610506578084848151811015156104c157fe5b9060200190602002019073ffffffffffffffffffffffffffffffffffffffff16908173ffffffffffffffffffffffffffffffffffffffff168152505082806001019350505b508080600101915050610398565b506060816040519080825280602002602001820160405280156105465781602001602082028038833980820191505090505b50905060008090505b828110156105c657838181518110151561056557fe5b90602001906020020151828281518110151561057d57fe5b9060200190602002019073ffffffffffffffffffffffffffffffffffffffff16908173ffffffffffffffffffffffffffffffffffffffff1681525050808060010191505061054f565b50809350505050919050565b60405161084a806105e38339019056fe608060405234801561001057600080fd5b5060405160a08061084a833981018060405260a081101561003057600080fd5b810190808051906020019092919080519060200190929190805190602001909291908051906020019092919080519060200190929190505050846000800160006101000a81548173ffffffffffffffffffffffffffffffffffffffff021916908373ffffffffffffffffffffffffffffffffffffffff160217905550836000600201819055508260006003018190555081600060040160006101000a81548160ff02191690831515021790555080600060040160016101000a81548160ff02191690831515021790555060008060040160026101000a81548160ff021916908315150217905550505050505061071f8061012b6000396000f3fe6080604052600436106100a4576000357c0100000000000000000000000000000000000000000000000000000000900463ffffffff1680631e6be911146100a957806320965255146100d457806347535d7b146100ff5780638701a2f01461012e578063893d20e81461019a57806389b5af53146101f1578063b688a36314610220578063bef4876b1461022a578063f8a0b69514610259578063fde41e29146102c5575b600080fd5b3480156100b557600080fd5b506100be6102f0565b6040518082815260200191505060405180910390f35b3480156100e057600080fd5b506100e961030f565b6040518082815260200191505060405180910390f35b34801561010b57600080fd5b50610114610318565b604051808215151515815260200191505060405180910390f35b34801561013a57600080fd5b5061014361041f565b6040518080602001828103825283818151815260200191508051906020019060200280838360005b8381101561018657808201518184015260208101905061016b565b505050509050019250505060405180910390f35b3480156101a657600080fd5b506101af610451565b604051808273ffffffffffffffffffffffffffffffffffffffff1673ffffffffffffffffffffffffffffffffffffffff16815260200191505060405180910390f35b3480156101fd57600080fd5b5061020661047d565b604051808215151515815260200191505060405180910390f35b610228610496565b005b34801561023657600080fd5b5061023f6105ac565b604051808215151515815260200191505060405180910390f35b34801561026557600080fd5b5061026e6105c5565b6040518080602001828103825283818151815260200191508051906020019060200280838360005b838110156102b1578082015181840152602081019050610296565b505050509050019250505060405180910390f35b3480156102d157600080fd5b506102da610656565b6040518082815260200191505060405180910390f35b60003073ffffffffffffffffffffffffffffffffffffffff1631905090565b60006005905090565b60008060000160009054906101000a900473ffffffffffffffffffffffffffffffffffffffff1673ffffffffffffffffffffffffffffffffffffffff163373ffffffffffffffffffffffffffffffffffffffff16141515610407576040517f08c379a00000000000000000000000000000000000000000000000000000000081526004018080602001828103825260228152602001807f4f6e6c79206f776e65722063616e2063616c6c20746869732066756e6374696f81526020017f6e2e00000000000000000000000000000000000000000000000000000000000081525060400191505060405180910390fd5b600060040160009054906101000a900460ff16905090565b60608061042a610662565b90506001600060040160026101000a81548160ff0219169083151502179055508091505090565b60008060000160009054906101000a900473ffffffffffffffffffffffffffffffffffffffff16905090565b60008060040160019054906101000a900460ff16905090565b670de0b6b3a7640000600060020154023414151561051c576040517f08c379a000000000000000000000000000000000000000000000000000000000815260040180806020018281038252600f8152602001807f52657175697265732045746865722e000000000000000000000000000000000081525060200191505060405180910390fd5b60011515600060040160009054906101000a900460ff16151514151561054157600080fd5b60006001013390806001815401808255809150509060018203906000526020600020016000909192909190916101000a81548173ffffffffffffffffffffffffffffffffffffffff021916908373ffffffffffffffffffffffffffffffffffffffff16021790555050565b60008060040160029054906101000a900460ff16905090565b6060600060010180548060200260200160405190810160405280929190818152602001828054801561064c57602002820191906000526020600020905b8160009054906101000a900473ffffffffffffffffffffffffffffffffffffffff1673ffffffffffffffffffffffffffffffffffffffff1681526020019060010190808311610602575b5050505050905090565b60008060020154905090565b606060006001018054806020026020016040519081016040528092919081815260200182805480156106e957602002820191906000526020600020905b8160009054906101000a900473ffffffffffffffffffffffffffffffffffffffff1673ffffffffffffffffffffffffffffffffffffffff168152602001906001019080831161069f575b505050505090509056fea165627a7a72305820814e072b91813a18e132d4438e8f112e6db508b058f79b322d9bc8a7234280c30029a165627a7a7230582094f145836835eaf583dda458e7e2475bda1e0ec7dd54e284cd4d8752341881ba0029",
  "source": "pragma solidity ^0.5.0;\r\n//TODO import oracles through oraclize\r\n\r\ninterface IWeatherBet {\r\n    function getValue() external;\r\n}\r\n\r\n//Our factory contract , this is deployed by us as developers.\r\ncontract WeatherFactory {\r\n    address[] public bets;\r\n\r\n    function createWeatherBet(uint _value , uint _maxParticipators , bool _open , bool _friendsOnly) public returns (address) {\r\n        address betAddress = address(new WeatherBet(msg.sender , _value , _maxParticipators , _open , _friendsOnly));\r\n        bets.push(betAddress);\r\n        return betAddress;\r\n    }\r\n    function getOwnedBets(address ownerAddress) public view returns (address[] memory) {\r\n        address[] memory allBets = new address[](bets.length);\r\n        uint256 currentIndice = 0;\r\n        for (uint256 index = 0; index < bets.length; index++) {\r\n            WeatherBet bet = WeatherBet(bets[index]);\r\n            if (bet.getOwner() == ownerAddress) {\r\n                allBets[currentIndice] = address(bet);\r\n                currentIndice++;  \r\n            }\r\n        }\r\n        address[] memory ownedBets = new address[](currentIndice);\r\n        for(uint256 index = 0 ; index < currentIndice; index++){\r\n            ownedBets[index] = allBets[index]; \r\n        }\r\n        return ownedBets;\r\n    }\r\n}\r\n//abstract contract\r\ncontract Bet {\r\n    struct BetStruct{\r\n        address owner;\r\n        address[] participators;\r\n        uint betAmount;\r\n        uint maxParticipators;\r\n        bool open;\r\n        bool friendsOnly;\r\n        bool finished;\r\n    }\r\n    BetStruct bet;\r\n\r\n    modifier onlyOwner {\r\n        require(\r\n            msg.sender == bet.owner,\r\n            \"Only owner can call this function.\"\r\n        );\r\n        _;\r\n    }\r\n\r\n    modifier openToJoin {\r\n        require(bet.open == true , \"Bet is not open at the moment.\");\r\n        _;\r\n    }\r\n    \r\n    //todo check if user is already in list....\r\n    function join() payable public {\r\n        require(msg.value == bet.betAmount * 1 ether  , \"Requires Ether.\");\r\n        require(bet.open == true);\r\n        bet.participators.push(msg.sender);\r\n    }\r\n\r\n    function userAlreadyJoined(address userAddress) private view returns (bool){\r\n        for (uint index = 0 ; index < bet.participators.length; index++) {\r\n            if(bet.participators[index] == userAddress) return true;\r\n        }\r\n        return false;\r\n    }\r\n\r\n    function isOpen() public onlyOwner view returns(bool){\r\n        return bet.open;\r\n    }\r\n\r\n    function friendsOnly() public view returns(bool){\r\n        return bet.friendsOnly;\r\n    }\r\n\r\n    function finished() public view returns(bool){\r\n        return bet.finished;\r\n    }\r\n\r\n    function getParticipators() public view returns  (address[] memory) {\r\n        return bet.participators;\r\n    }\r\n\r\n    function getBetAmount() public view returns (uint) {\r\n        return bet.betAmount;\r\n    }\r\n\r\n    function getOwner() public view returns (address) {\r\n        return bet.owner;\r\n    }\r\n\r\n    function getStoredBalance() public view returns (uint256){\r\n        return address(this).balance;\r\n    }\r\n    \r\n    function finishBet() public returns (address[] memory){\r\n        address[] memory holder  = defineWinners();\r\n        bet.finished = true;\r\n        return holder;\r\n    }\r\n    function defineWinners() private returns (address[] memory);\r\n}\r\n\r\ncontract WeatherBet is Bet, IWeatherBet {\r\n    constructor(address _owner , uint _amount , uint _maxParticipators , bool _open , bool _friendsOnly) public {\r\n        bet.owner = _owner;\r\n        bet.betAmount = _amount;\r\n        bet.maxParticipators = _maxParticipators;\r\n        bet.open = _open;\r\n        bet.friendsOnly = _friendsOnly;\r\n        bet.finished = false;\r\n    }\r\n    //Everyone is a winner\r\n    function defineWinners() private returns (address[] memory) {\r\n        return bet.participators;\r\n    }\r\n    function getValue() public view returns(uint){\r\n        return 5;\r\n    }\r\n}",
  "sourcePath": "C:/Users/Robin/Documents/GitHub/QuintorExperiment/contracts/Weather.sol",
  "compiler": {
    "name": "solc",
    "version": "0.5.0+commit.1d4f565a.Emscripten.clang"
  },
  "schemaVersion": "3.0.2",
  "updatedAt": "2019-02-21T11:37:38.086Z",
  "devdoc": {
    "methods": {}
  },
  "userdoc": {
    "methods": {}
  }
}