{
  "contractName": "WeatherBet",
  "abi": [
    {
      "constant": true,
      "inputs": [],
      "name": "getStoredBalance",
      "outputs": [
        {
          "name": "",
          "type": "uint256"
        }
      ],
      "payable": false,
      "stateMutability": "view",
      "type": "function"
    },
    {
      "constant": true,
      "inputs": [],
      "name": "isOpen",
      "outputs": [
        {
          "name": "",
          "type": "bool"
        }
      ],
      "payable": false,
      "stateMutability": "view",
      "type": "function"
    },
    {
      "constant": false,
      "inputs": [],
      "name": "finishBet",
      "outputs": [
        {
          "name": "",
          "type": "address[]"
        }
      ],
      "payable": false,
      "stateMutability": "nonpayable",
      "type": "function"
    },
    {
      "constant": true,
      "inputs": [],
      "name": "getOwner",
      "outputs": [
        {
          "name": "",
          "type": "address"
        }
      ],
      "payable": false,
      "stateMutability": "view",
      "type": "function"
    },
    {
      "constant": true,
      "inputs": [],
      "name": "friendsOnly",
      "outputs": [
        {
          "name": "",
          "type": "bool"
        }
      ],
      "payable": false,
      "stateMutability": "view",
      "type": "function"
    },
    {
      "constant": false,
      "inputs": [],
      "name": "join",
      "outputs": [],
      "payable": true,
      "stateMutability": "payable",
      "type": "function"
    },
    {
      "constant": true,
      "inputs": [],
      "name": "finished",
      "outputs": [
        {
          "name": "",
          "type": "bool"
        }
      ],
      "payable": false,
      "stateMutability": "view",
      "type": "function"
    },
    {
      "constant": true,
      "inputs": [],
      "name": "getParticipators",
      "outputs": [
        {
          "name": "",
          "type": "address[]"
        }
      ],
      "payable": false,
      "stateMutability": "view",
      "type": "function"
    },
    {
      "constant": true,
      "inputs": [],
      "name": "getBetAmount",
      "outputs": [
        {
          "name": "",
          "type": "uint256"
        }
      ],
      "payable": false,
      "stateMutability": "view",
      "type": "function"
    },
    {
      "inputs": [
        {
          "name": "_owner",
          "type": "address"
        },
        {
          "name": "_amount",
          "type": "uint256"
        },
        {
          "name": "_maxParticipators",
          "type": "uint256"
        },
        {
          "name": "_open",
          "type": "bool"
        },
        {
          "name": "_friendsOnly",
          "type": "bool"
        }
      ],
      "payable": false,
      "stateMutability": "nonpayable",
      "type": "constructor"
    },
    {
      "constant": true,
      "inputs": [],
      "name": "getValue",
      "outputs": [
        {
          "name": "",
          "type": "uint256"
        }
      ],
      "payable": false,
      "stateMutability": "view",
      "type": "function"
    }
  ],
  "bytecode": "0x608060405234801561001057600080fd5b5060405160a0806107c5833981018060405260a081101561003057600080fd5b810190808051906020019092919080519060200190929190805190602001909291908051906020019092919080519060200190929190505050846000800160006101000a81548173ffffffffffffffffffffffffffffffffffffffff021916908373ffffffffffffffffffffffffffffffffffffffff160217905550836000600201819055508260006003018190555081600060040160006101000a81548160ff02191690831515021790555080600060040160016101000a81548160ff02191690831515021790555060008060040160026101000a81548160ff021916908315150217905550505050505061069a8061012b6000396000f3fe6080604052600436106100a4576000357c0100000000000000000000000000000000000000000000000000000000900463ffffffff1680631e6be911146100a957806320965255146100d457806347535d7b146100ff5780638701a2f01461012e578063893d20e81461019a57806389b5af53146101f1578063b688a36314610220578063bef4876b1461022a578063f8a0b69514610259578063fde41e29146102c5575b600080fd5b3480156100b557600080fd5b506100be6102f0565b6040518082815260200191505060405180910390f35b3480156100e057600080fd5b506100e961030f565b6040518082815260200191505060405180910390f35b34801561010b57600080fd5b50610114610318565b604051808215151515815260200191505060405180910390f35b34801561013a57600080fd5b50610143610331565b6040518080602001828103825283818151815260200191508051906020019060200280838360005b8381101561018657808201518184015260208101905061016b565b505050509050019250505060405180910390f35b3480156101a657600080fd5b506101af610363565b604051808273ffffffffffffffffffffffffffffffffffffffff1673ffffffffffffffffffffffffffffffffffffffff16815260200191505060405180910390f35b3480156101fd57600080fd5b5061020661038f565b604051808215151515815260200191505060405180910390f35b6102286103a8565b005b34801561023657600080fd5b5061023f610527565b604051808215151515815260200191505060405180910390f35b34801561026557600080fd5b5061026e610540565b6040518080602001828103825283818151815260200191508051906020019060200280838360005b838110156102b1578082015181840152602081019050610296565b505050509050019250505060405180910390f35b3480156102d157600080fd5b506102da6105d1565b6040518082815260200191505060405180910390f35b60003073ffffffffffffffffffffffffffffffffffffffff1631905090565b60006005905090565b60008060040160009054906101000a900460ff16905090565b60608061033c6105dd565b90506001600060040160026101000a81548160ff0219169083151502179055508091505090565b60008060000160009054906101000a900473ffffffffffffffffffffffffffffffffffffffff16905090565b60008060040160019054906101000a900460ff16905090565b60011515600060040160009054906101000a900460ff161515141515610436576040517f08c379a000000000000000000000000000000000000000000000000000000000815260040180806020018281038252601e8152602001807f426574206973206e6f74206f70656e20617420746865206d6f6d656e742e000081525060200191505060405180910390fd5b670de0b6b3a764000060006002015402341415156104bc576040517f08c379a000000000000000000000000000000000000000000000000000000000815260040180806020018281038252600f8152602001807f52657175697265732045746865722e000000000000000000000000000000000081525060200191505060405180910390fd5b60006001013390806001815401808255809150509060018203906000526020600020016000909192909190916101000a81548173ffffffffffffffffffffffffffffffffffffffff021916908373ffffffffffffffffffffffffffffffffffffffff16021790555050565b60008060040160029054906101000a900460ff16905090565b606060006001018054806020026020016040519081016040528092919081815260200182805480156105c757602002820191906000526020600020905b8160009054906101000a900473ffffffffffffffffffffffffffffffffffffffff1673ffffffffffffffffffffffffffffffffffffffff168152602001906001019080831161057d575b5050505050905090565b60008060020154905090565b6060600060010180548060200260200160405190810160405280929190818152602001828054801561066457602002820191906000526020600020905b8160009054906101000a900473ffffffffffffffffffffffffffffffffffffffff1673ffffffffffffffffffffffffffffffffffffffff168152602001906001019080831161061a575b505050505090509056fea165627a7a7230582007b9177b69e626ef198c3b1b6f79c0dc2321384ce923d093df741bc8702c32420029",
  "source": "pragma solidity ^0.5.0;\r\n//TODO import oracles through oraclize\r\n\r\ninterface IWeatherBet {\r\n    function getValue() external;\r\n}\r\n\r\n//Our factory contract , this is deployed by us as developers.\r\ncontract WeatherFactory {\r\n    address[] public bets;\r\n\r\n    function createWeatherBet(uint _value , uint _maxParticipators , bool _open , bool _friendsOnly) public returns (address) {\r\n        address betAddress = address(new WeatherBet(msg.sender , _value , _maxParticipators , _open , _friendsOnly));\r\n        bets.push(betAddress);\r\n        return betAddress;\r\n    }\r\n    function getOwnedBets(address ownerAddress) public view returns (address[] memory) {\r\n        address[] memory allBets = new address[](bets.length);\r\n        uint256 currentIndice = 0;\r\n        for (uint256 index = 0; index < bets.length; index++) {\r\n            WeatherBet bet = WeatherBet(bets[index]);\r\n            if (bet.getOwner() == ownerAddress) {\r\n                allBets[currentIndice] = address(bet);\r\n                currentIndice++;  \r\n            }\r\n        }\r\n        address[] memory ownedBets = new address[](currentIndice);\r\n        for(uint256 index = 0 ; index < currentIndice; index++){\r\n            ownedBets[index] = allBets[index]; \r\n        }\r\n        return ownedBets;\r\n    }\r\n}\r\n//abstract contract\r\ncontract Bet {\r\n    struct BetStruct{\r\n        address owner;\r\n        address[] participators;\r\n        uint betAmount;\r\n        uint maxParticipators;\r\n        bool open;\r\n        bool friendsOnly;\r\n        bool finished;\r\n    }\r\n    BetStruct bet;\r\n\r\n    //todo check if user is already in list....\r\n    function join() payable public {\r\n        require(bet.open == true , \"Bet is not open at the moment.\");\r\n        require(msg.value == bet.betAmount * 1 ether  , \"Requires Ether.\");\r\n        bet.participators.push(msg.sender);\r\n    }\r\n\r\n    function isOpen() public view returns(bool){\r\n        return bet.open;\r\n    }\r\n\r\n    function friendsOnly() public view returns(bool){\r\n        return bet.friendsOnly;\r\n    }\r\n\r\n    function finished() public view returns(bool){\r\n        return bet.finished;\r\n    }\r\n\r\n    function getParticipators() public view returns  (address[] memory) {\r\n        return bet.participators;\r\n    }\r\n\r\n    function getBetAmount() public view returns (uint) {\r\n        return bet.betAmount;\r\n    }\r\n\r\n    function getOwner() public view returns (address) {\r\n        return bet.owner;\r\n    }\r\n\r\n    function getStoredBalance() public view returns (uint256){\r\n        return address(this).balance;\r\n    }\r\n    \r\n    function finishBet() public returns (address[] memory){\r\n        address[] memory holder  = defineWinners();\r\n        bet.finished = true;\r\n        return holder;\r\n    }\r\n    function defineWinners() private returns (address[] memory);\r\n}\r\n\r\ncontract WeatherBet is Bet, IWeatherBet {\r\n    constructor(address _owner , uint _amount , uint _maxParticipators , bool _open , bool _friendsOnly) public {\r\n        bet.owner = _owner;\r\n        bet.betAmount = _amount;\r\n        bet.maxParticipators = _maxParticipators;\r\n        bet.open = _open;\r\n        bet.friendsOnly = _friendsOnly;\r\n        bet.finished = false;\r\n    }\r\n    //Everyone is a winner\r\n    function defineWinners() private returns (address[] memory) {\r\n        return bet.participators;\r\n    }\r\n    function getValue() public view returns(uint){\r\n        return 5;\r\n    }\r\n}",
  "sourcePath": "C:/Users/Robin/Documents/GitHub/QuintorExperiment/contracts/Weather.sol",
  "compiler": {
    "name": "solc",
    "version": "0.5.0+commit.1d4f565a.Emscripten.clang"
  },
  "schemaVersion": "3.0.2",
  "updatedAt": "2019-02-20T15:50:37.413Z",
  "devdoc": {
    "methods": {}
  },
  "userdoc": {
    "methods": {}
  }
}